{
  "transactions": [
    {
      "hash": "0xbd275231dc90d6cecaab781078b6bafe4a19b06289246b9438c4bab49ca4e33e",
      "transactionType": "CALL",
      "contractName": null,
      "contractAddress": "0xba50cd2a20f6da35d788639e581bca8d0b5d4d5f",
      "function": "approve(address,uint256)",
      "arguments": [
        "0xfe5FE166E70a2772B6d6cA98A9432925088620A5",
        "1000000000"
      ],
      "transaction": {
        "from": "0xc15b6392ffa1964012dc8f3df87b09258e86c60d",
        "to": "0xba50cd2a20f6da35d788639e581bca8d0b5d4d5f",
        "gas": "0xf976",
        "value": "0x0",
        "input": "0x095ea7b3000000000000000000000000fe5fe166e70a2772b6d6ca98a9432925088620a5000000000000000000000000000000000000000000000000000000003b9aca00",
        "nonce": "0x41",
        "chainId": "0x14a34"
      },
      "additionalContracts": [],
      "isFixedGasLimit": false
    },
    {
      "hash": "0xcf4677e2662e962c0dafafd8b4a4dab9e51af84722f4c1a080847be89663c8e8",
      "transactionType": "CALL",
      "contractName": null,
      "contractAddress": "0xfe5fe166e70a2772b6d6ca98a9432925088620a5",
      "function": "deposit(uint256,address)",
      "arguments": [
        "1000000000",
        "0xC15b6392FFa1964012dC8F3dF87B09258E86c60D"
      ],
      "transaction": {
        "from": "0xc15b6392ffa1964012dc8f3df87b09258e86c60d",
        "to": "0xfe5fe166e70a2772b6d6ca98a9432925088620a5",
        "gas": "0x52914",
        "value": "0x0",
        "input": "0x6e553f65000000000000000000000000000000000000000000000000000000003b9aca00000000000000000000000000c15b6392ffa1964012dc8f3df87b09258e86c60d",
        "nonce": "0x42",
        "chainId": "0x14a34"
      },
      "additionalContracts": [],
      "isFixedGasLimit": false
    },
    {
      "hash": "0x6850c2cb9f535829f91a6bf38976066f43bd6928a14a843d144876c258ab88f8",
      "transactionType": "CALL",
      "contractName": null,
      "contractAddress": "0xfe5fe166e70a2772b6d6ca98a9432925088620a5",
      "function": "deployToYield(uint256,uint256)",
      "arguments": [
        "0",
        "500000000"
      ],
      "transaction": {
        "from": "0xc15b6392ffa1964012dc8f3df87b09258e86c60d",
        "to": "0xfe5fe166e70a2772b6d6ca98a9432925088620a5",
        "gas": "0x66286",
        "value": "0x0",
        "input": "0x0446e74c0000000000000000000000000000000000000000000000000000000000000000000000000000000000000000000000000000000000000000000000001dcd6500",
        "nonce": "0x43",
        "chainId": "0x14a34"
      },
      "additionalContracts": [],
      "isFixedGasLimit": false
    },
    {
      "hash": "0x55b7f86e25093ea45204fd936111c2c3240604438688063b7b6c754e9ca0b970",
      "transactionType": "CALL",
      "contractName": null,
      "contractAddress": "0xfe5fe166e70a2772b6d6ca98a9432925088620a5",
      "function": "deployToYield(uint256,uint256)",
      "arguments": [
        "1",
        "300000000"
      ],
      "transaction": {
        "from": "0xc15b6392ffa1964012dc8f3df87b09258e86c60d",
        "to": "0xfe5fe166e70a2772b6d6ca98a9432925088620a5",
        "gas": "0x4fe13",
        "value": "0x0",
        "input": "0x0446e74c00000000000000000000000000000000000000000000000000000000000000010000000000000000000000000000000000000000000000000000000011e1a300",
        "nonce": "0x44",
        "chainId": "0x14a34"
      },
      "additionalContracts": [],
      "isFixedGasLimit": false
    }
  ],
  "receipts": [
    {
      "status": "0x1",
      "cumulativeGasUsed": "0x64e536",
      "logs": [
        {
          "address": "0xba50cd2a20f6da35d788639e581bca8d0b5d4d5f",
          "topics": [
            "0x8c5be1e5ebec7d5bd14f71427d1e84f3dd0314c0f7b2291e5b200ac8c7c3b925",
            "0x000000000000000000000000c15b6392ffa1964012dc8f3df87b09258e86c60d",
            "0x000000000000000000000000fe5fe166e70a2772b6d6ca98a9432925088620a5"
          ],
          "data": "0x000000000000000000000000000000000000000000000000000000003b9aca00",
          "blockHash": "0x5969aabe3241f7170bd1aeaf11cbdf364674ed82b6c8144c893c93e4ff8edbac",
          "blockNumber": "0x237b4d7",
          "blockTimestamp": "0x6982c88e",
          "transactionHash": "0xcf4677e2662e962c0dafafd8b4a4dab9e51af84722f4c1a080847be89663c8e8",
          "transactionIndex": "0x15",
          "logIndex": "0x115",
          "removed": false
        }
      ],
      "logsBloom": "0x00000000000000000000000000001000000000000000000000000000000000000000000000000000004000000000000000000000000000000000000240200000000000000000000000000000000000000000000000000000000000000000000000000000000000000000000000000000000000000000000000000000000000000000000000000000000000000000000200000020000000000001000000000000020000000000000000000000000000000000000000000000000000000000000000000000000000000000000000000000000000000000000000000000000000000010000000000000000000000000000000000000002000800000000000000000",
      "type": "0x2",
      "transactionHash": "0xcf4677e2662e962c0dafafd8b4a4dab9e51af84722f4c1a080847be89663c8e8",
      "transactionIndex": "0x15",
      "blockHash": "0x5969aabe3241f7170bd1aeaf11cbdf364674ed82b6c8144c893c93e4ff8edbac",
      "blockNumber": "0x237b4d7",
      "gasUsed": "0xb49c",
      "effectiveGasPrice": "0x124f80",
      "blobGasUsed": "0x79e0",
      "from": "0xc15b6392ffa1964012dc8f3df87b09258e86c60d",
      "to": "0xba50cd2a20f6da35d788639e581bca8d0b5d4d5f",
      "contractAddress": null,
      "daFootprintGasScalar": "0x138",
      "l1BaseFeeScalar": "0x44d",
      "l1BlobBaseFee": "0xe79e1341",
      "l1BlobBaseFeeScalar": "0xa118b",
      "l1Fee": "0x3c22c9790d",
      "l1GasPrice": "0x3f492ceb",
      "l1GasUsed": "0x640"
    },
    {
      "status": "0x1",
      "cumulativeGasUsed": "0x158205",
      "logs": [
        {
          "address": "0xfe5fe166e70a2772b6d6ca98a9432925088620a5",
          "topics": [
            "0x53b2b574a22a0f1e1adeece893b9ac9906dad5c57e5460cd08f2c1ab00aa8ff7"
          ],
          "data": "0x00000000000000000000000000000000000000000000000000000000000003e80000000000000000000000000000000000000000000000000000000000000000",
          "blockHash": "0x7f2a59054aa6e00269949adc583f18219d59d6982ea5cf80e14d9571a963b264",
          "blockNumber": "0x237b4d8",
          "blockTimestamp": "0x6982c890",
          "transactionHash": "0x6850c2cb9f535829f91a6bf38976066f43bd6928a14a843d144876c258ab88f8",
          "transactionIndex": "0x9",
          "logIndex": "0xe",
          "removed": false
        },
        {
          "address": "0xba50cd2a20f6da35d788639e581bca8d0b5d4d5f",
          "topics": [
            "0xddf252ad1be2c89b69c2b068fc378daa952ba7f163c4a11628f55a4df523b3ef",
            "0x000000000000000000000000c15b6392ffa1964012dc8f3df87b09258e86c60d",
            "0x000000000000000000000000fe5fe166e70a2772b6d6ca98a9432925088620a5"
          ],
          "data": "0x000000000000000000000000000000000000000000000000000000003b9aca00",
          "blockHash": "0x7f2a59054aa6e00269949adc583f18219d59d6982ea5cf80e14d9571a963b264",
          "blockNumber": "0x237b4d8",
          "blockTimestamp": "0x6982c890",
          "transactionHash": "0x6850c2cb9f535829f91a6bf38976066f43bd6928a14a843d144876c258ab88f8",
          "transactionIndex": "0x9",
          "logIndex": "0xf",
          "removed": false
        },
        {
          "address": "0xba50cd2a20f6da35d788639e581bca8d0b5d4d5f",
          "topics": [
            "0x8c5be1e5ebec7d5bd14f71427d1e84f3dd0314c0f7b2291e5b200ac8c7c3b925",
            "0x000000000000000000000000c15b6392ffa1964012dc8f3df87b09258e86c60d",
            "0x000000000000000000000000fe5fe166e70a2772b6d6ca98a9432925088620a5"
          ],
          "data": "0x0000000000000000000000000000000000000000000000000000000000000000",
          "blockHash": "0x7f2a59054aa6e00269949adc583f18219d59d6982ea5cf80e14d9571a963b264",
          "blockNumber": "0x237b4d8",
          "blockTimestamp": "0x6982c890",
          "transactionHash": "0x6850c2cb9f535829f91a6bf38976066f43bd6928a14a843d144876c258ab88f8",
          "transactionIndex": "0x9",
          "logIndex": "0x10",
          "removed": false
        },
        {
          "address": "0xfe5fe166e70a2772b6d6ca98a9432925088620a5",
          "topics": [
            "0xddf252ad1be2c89b69c2b068fc378daa952ba7f163c4a11628f55a4df523b3ef",
            "0x0000000000000000000000000000000000000000000000000000000000000000",
            "0x000000000000000000000000c15b6392ffa1964012dc8f3df87b09258e86c60d"
          ],
          "data": "0x000000000000000000000000000000000000000000000000000000e8d4a51000",
          "blockHash": "0x7f2a59054aa6e00269949adc583f18219d59d6982ea5cf80e14d9571a963b264",
          "blockNumber": "0x237b4d8",
          "blockTimestamp": "0x6982c890",
          "transactionHash": "0x6850c2cb9f535829f91a6bf38976066f43bd6928a14a843d144876c258ab88f8",
          "transactionIndex": "0x9",
          "logIndex": "0x11",
          "removed": false
        },
        {
          "address": "0xfe5fe166e70a2772b6d6ca98a9432925088620a5",
          "topics": [
            "0xdcbc1c05240f31ff3ad067ef1ee35ce4997762752e3a095284754544f4c709d7",
            "0x000000000000000000000000c15b6392ffa1964012dc8f3df87b09258e86c60d",
            "0x000000000000000000000000c15b6392ffa1964012dc8f3df87b09258e86c60d"
          ],
          "data": "0x000000000000000000000000000000000000000000000000000000003b9aca00000000000000000000000000000000000000000000000000000000e8d4a51000",
          "blockHash": "0x7f2a59054aa6e00269949adc583f18219d59d6982ea5cf80e14d9571a963b264",
          "blockNumber": "0x237b4d8",
          "blockTimestamp": "0x6982c890",
          "transactionHash": "0x6850c2cb9f535829f91a6bf38976066f43bd6928a14a843d144876c258ab88f8",
          "transactionIndex": "0x9",
          "logIndex": "0x12",
          "removed": false
        }
      ],
      "logsBloom": "0x00010000002000000000000000001000000000000000000000000000000000000000000000000000004000000000000000000000000000000000000240200000000000400000000000000008000000000000040000000000000000000000000000000000020000000000000002000800000000000004000000000010000000000000000000000000000000000000002200000020000000000001000000000000020000000000000000000000000000000000000000000000000000000000000000000002000000000000000000000000000000000008000000000000000020000010000000000000000000000000000000000000002000840000000000000000",
      "type": "0x2",
      "transactionHash": "0x6850c2cb9f535829f91a6bf38976066f43bd6928a14a843d144876c258ab88f8",
      "transactionIndex": "0x9",
      "blockHash": "0x7f2a59054aa6e00269949adc583f18219d59d6982ea5cf80e14d9571a963b264",
      "blockNumber": "0x237b4d8",
      "gasUsed": "0x3bc70",
      "effectiveGasPrice": "0x125484",
      "blobGasUsed": "0x79e0",
      "from": "0xc15b6392ffa1964012dc8f3df87b09258e86c60d",
      "to": "0xfe5fe166e70a2772b6d6ca98a9432925088620a5",
      "contractAddress": null,
      "daFootprintGasScalar": "0x138",
      "l1BaseFeeScalar": "0x44d",
      "l1BlobBaseFee": "0xe79e1341",
      "l1BlobBaseFeeScalar": "0xa118b",
      "l1Fee": "0x15a2287fe2f",
      "l1GasPrice": "0x3f492ceb",
      "l1GasUsed": "0x640"
    },
    {
      "status": "0x1",
      "cumulativeGasUsed": "0x1a2164",
      "logs": [
        {
          "address": "0xba50cd2a20f6da35d788639e581bca8d0b5d4d5f",
          "topics": [
            "0x8c5be1e5ebec7d5bd14f71427d1e84f3dd0314c0f7b2291e5b200ac8c7c3b925",
            "0x000000000000000000000000fe5fe166e70a2772b6d6ca98a9432925088620a5",
            "0x0000000000000000000000000724eafd693c2c7f07fafa321b1bf75d2572f190"
          ],
          "data": "0x000000000000000000000000000000000000000000000000000000001dcd6500",
          "blockHash": "0x7f2a59054aa6e00269949adc583f18219d59d6982ea5cf80e14d9571a963b264",
          "blockNumber": "0x237b4d8",
          "blockTimestamp": "0x6982c890",
          "transactionHash": "0x55b7f86e25093ea45204fd936111c2c3240604438688063b7b6c754e9ca0b970",
          "transactionIndex": "0xa",
          "logIndex": "0x13",
          "removed": false
        },
        {
          "address": "0xba50cd2a20f6da35d788639e581bca8d0b5d4d5f",
          "topics": [
            "0xddf252ad1be2c89b69c2b068fc378daa952ba7f163c4a11628f55a4df523b3ef",
            "0x000000000000000000000000fe5fe166e70a2772b6d6ca98a9432925088620a5",
            "0x0000000000000000000000000724eafd693c2c7f07fafa321b1bf75d2572f190"
          ],
          "data": "0x000000000000000000000000000000000000000000000000000000001dcd6500",
          "blockHash": "0x7f2a59054aa6e00269949adc583f18219d59d6982ea5cf80e14d9571a963b264",
          "blockNumber": "0x237b4d8",
          "blockTimestamp": "0x6982c890",
          "transactionHash": "0x55b7f86e25093ea45204fd936111c2c3240604438688063b7b6c754e9ca0b970",
          "transactionIndex": "0xa",
          "logIndex": "0x14",
          "removed": false
        },
        {
          "address": "0xba50cd2a20f6da35d788639e581bca8d0b5d4d5f",
          "topics": [
            "0x8c5be1e5ebec7d5bd14f71427d1e84f3dd0314c0f7b2291e5b200ac8c7c3b925",
            "0x000000000000000000000000fe5fe166e70a2772b6d6ca98a9432925088620a5",
            "0x0000000000000000000000000724eafd693c2c7f07fafa321b1bf75d2572f190"
          ],
          "data": "0x0000000000000000000000000000000000000000000000000000000000000000",
          "blockHash": "0x7f2a59054aa6e00269949adc583f18219d59d6982ea5cf80e14d9571a963b264",
          "blockNumber": "0x237b4d8",
          "blockTimestamp": "0x6982c890",
          "transactionHash": "0x55b7f86e25093ea45204fd936111c2c3240604438688063b7b6c754e9ca0b970",
          "transactionIndex": "0xa",
          "logIndex": "0x15",
          "removed": false
        },
        {
          "address": "0xba50cd2a20f6da35d788639e581bca8d0b5d4d5f",
          "topics": [
            "0x8c5be1e5ebec7d5bd14f71427d1e84f3dd0314c0f7b2291e5b200ac8c7c3b925",
            "0x0000000000000000000000000724eafd693c2c7f07fafa321b1bf75d2572f190",
            "0x0000000000000000000000008bab6d1b75f19e9ed9fce8b9bd338844ff79ae27"
          ],
          "data": "0x000000000000000000000000000000000000000000000000000000001dcd6500",
          "blockHash": "0x7f2a59054aa6e00269949adc583f18219d59d6982ea5cf80e14d9571a963b264",
          "blockNumber": "0x237b4d8",
          "blockTimestamp": "0x6982c890",
          "transactionHash": "0x55b7f86e25093ea45204fd936111c2c3240604438688063b7b6c754e9ca0b970",
          "transactionIndex": "0xa",
          "logIndex": "0x16",
          "removed": false
        },
        {
          "address": "0x8bab6d1b75f19e9ed9fce8b9bd338844ff79ae27",
          "topics": [
            "0x804c9b842b2748a22bb64b345453a3de7ca54a6ca45ce00d415894979e22897a",
            "0x000000000000000000000000ba50cd2a20f6da35d788639e581bca8d0b5d4d5f"
          ],
          "data": "0x000000000000000000000000000000000000000000046bcdebc3716099e9a34200000000000000000000000000000000000000000000000000000000000000000000000000000000000000000000000000000000000eb8a2472c3eef6967ad99000000000000000000000000000000000000000004007360be30faa4d1474aa000000000000000000000000000000000000000000422515a059899688848eaf3",
          "blockHash": "0x7f2a59054aa6e00269949adc583f18219d59d6982ea5cf80e14d9571a963b264",
          "blockNumber": "0x237b4d8",
          "blockTimestamp": "0x6982c890",
          "transactionHash": "0x55b7f86e25093ea45204fd936111c2c3240604438688063b7b6c754e9ca0b970",
          "transactionIndex": "0xa",
          "logIndex": "0x17",
          "removed": false
        },
        {
          "address": "0xba50cd2a20f6da35d788639e581bca8d0b5d4d5f",
          "topics": [
            "0xddf252ad1be2c89b69c2b068fc378daa952ba7f163c4a11628f55a4df523b3ef",
            "0x0000000000000000000000000724eafd693c2c7f07fafa321b1bf75d2572f190",
            "0x00000000000000000000000010f1a9d11cdf50041f3f8cb7191cbe2f31750acc"
          ],
          "data": "0x000000000000000000000000000000000000000000000000000000001dcd6500",
          "blockHash": "0x7f2a59054aa6e00269949adc583f18219d59d6982ea5cf80e14d9571a963b264",
          "blockNumber": "0x237b4d8",
          "blockTimestamp": "0x6982c890",
          "transactionHash": "0x55b7f86e25093ea45204fd936111c2c3240604438688063b7b6c754e9ca0b970",
          "transactionIndex": "0xa",
          "logIndex": "0x18",
          "removed": false
        },
        {
          "address": "0xba50cd2a20f6da35d788639e581bca8d0b5d4d5f",
          "topics": [
            "0x8c5be1e5ebec7d5bd14f71427d1e84f3dd0314c0f7b2291e5b200ac8c7c3b925",
            "0x0000000000000000000000000724eafd693c2c7f07fafa321b1bf75d2572f190",
            "0x0000000000000000000000008bab6d1b75f19e9ed9fce8b9bd338844ff79ae27"
          ],
          "data": "0x0000000000000000000000000000000000000000000000000000000000000000",
          "blockHash": "0x7f2a59054aa6e00269949adc583f18219d59d6982ea5cf80e14d9571a963b264",
          "blockNumber": "0x237b4d8",
          "blockTimestamp": "0x6982c890",
          "transactionHash": "0x55b7f86e25093ea45204fd936111c2c3240604438688063b7b6c754e9ca0b970",
          "transactionIndex": "0xa",
          "logIndex": "0x19",
          "removed": false
        },
        {
          "address": "0x10f1a9d11cdf50041f3f8cb7191cbe2f31750acc",
          "topics": [
            "0xddf252ad1be2c89b69c2b068fc378daa952ba7f163c4a11628f55a4df523b3ef",
            "0x0000000000000000000000000000000000000000000000000000000000000000",
            "0x0000000000000000000000000724eafd693c2c7f07fafa321b1bf75d2572f190"
          ],
          "data": "0x000000000000000000000000000000000000000000000000000000001dcd64fe",
          "blockHash": "0x7f2a59054aa6e00269949adc583f18219d59d6982ea5cf80e14d9571a963b264",
          "blockNumber": "0x237b4d8",
          "blockTimestamp": "0x6982c890",
          "transactionHash": "0x55b7f86e25093ea45204fd936111c2c3240604438688063b7b6c754e9ca0b970",
          "transactionIndex": "0xa",
          "logIndex": "0x1a",
          "removed": false
        },
        {
          "address": "0x10f1a9d11cdf50041f3f8cb7191cbe2f31750acc",
          "topics": [
            "0x458f5fa412d0f69b08dd84872b0215675cc67bc1d5b6fd93300a1c3878b86196",
            "0x0000000000000000000000000724eafd693c2c7f07fafa321b1bf75d2572f190",
            "0x0000000000000000000000000724eafd693c2c7f07fafa321b1bf75d2572f190"
          ],
          "data": "0x000000000000000000000000000000000000000000000000000000001dcd64fe0000000000000000000000000000000000000000000000000000000000000000000000000000000000000000000000000000000004007360be30faa4d1474aa0",
          "blockHash": "0x7f2a59054aa6e00269949adc583f18219d59d6982ea5cf80e14d9571a963b264",
          "blockNumber": "0x237b4d8",
          "blockTimestamp": "0x6982c890",
          "transactionHash": "0x55b7f86e25093ea45204fd936111c2c3240604438688063b7b6c754e9ca0b970",
          "transactionIndex": "0xa",
          "logIndex": "0x1b",
          "removed": false
        },
        {
          "address": "0x8bab6d1b75f19e9ed9fce8b9bd338844ff79ae27",
          "topics": [
            "0x00058a56ea94653cdf4f152d227ace22d4c00ad99e2a43f58cb7d9e3feb295f2",
            "0x000000000000000000000000ba50cd2a20f6da35d788639e581bca8d0b5d4d5f",
            "0x0000000000000000000000000724eafd693c2c7f07fafa321b1bf75d2572f190"
          ],
          "data": "0x",
          "blockHash": "0x7f2a59054aa6e00269949adc583f18219d59d6982ea5cf80e14d9571a963b264",
          "blockNumber": "0x237b4d8",
          "blockTimestamp": "0x6982c890",
          "transactionHash": "0x55b7f86e25093ea45204fd936111c2c3240604438688063b7b6c754e9ca0b970",
          "transactionIndex": "0xa",
          "logIndex": "0x1c",
          "removed": false
        },
        {
          "address": "0x8bab6d1b75f19e9ed9fce8b9bd338844ff79ae27",
          "topics": [
            "0x2b627736bca15cd5381dcf80b0bf11fd197d01a037c52b927a881a10fb73ba61",
            "0x000000000000000000000000ba50cd2a20f6da35d788639e581bca8d0b5d4d5f",
            "0x0000000000000000000000000724eafd693c2c7f07fafa321b1bf75d2572f190",
            "0x0000000000000000000000000000000000000000000000000000000000000000"
          ],
          "data": "0x0000000000000000000000000724eafd693c2c7f07fafa321b1bf75d2572f190000000000000000000000000000000000000000000000000000000001dcd6500",
          "blockHash": "0x7f2a59054aa6e00269949adc583f18219d59d6982ea5cf80e14d9571a963b264",
          "blockNumber": "0x237b4d8",
          "blockTimestamp": "0x6982c890",
          "transactionHash": "0x55b7f86e25093ea45204fd936111c2c3240604438688063b7b6c754e9ca0b970",
          "transactionIndex": "0xa",
          "logIndex": "0x1d",
          "removed": false
        },
        {
          "address": "0xfe5fe166e70a2772b6d6ca98a9432925088620a5",
          "topics": [
            "0x4d55162687154640f2294be21d680fea91a811337cd162c5a3d5c625c48de592",
            "0x0000000000000000000000000000000000000000000000000000000000000000"
          ],
          "data": "0x000000000000000000000000000000000000000000000000000000001dcd6500",
          "blockHash": "0x7f2a59054aa6e00269949adc583f18219d59d6982ea5cf80e14d9571a963b264",
          "blockNumber": "0x237b4d8",
          "blockTimestamp": "0x6982c890",
          "transactionHash": "0x55b7f86e25093ea45204fd936111c2c3240604438688063b7b6c754e9ca0b970",
          "transactionIndex": "0xa",
          "logIndex": "0x1e",
          "removed": false
        }
      ],
      "logsBloom": "0x00010040002008000080000000001000400000000000800000000000000040000000000000010000004000000004000000000000000000000000000240200000000000008000000000000408060808000000040000000000000000040000000000000000020000000000000000800800000000000000100000000010000000000000000080000000000000000000000000002000000000000000000000000000020000000000000000000000040000000000000004000000000000100000018002000002000000000004002040000000040000000000000000000000000020000010000000000000000000000000200040000000002000800000400000000000",
      "type": "0x2",
      "transactionHash": "0x55b7f86e25093ea45204fd936111c2c3240604438688063b7b6c754e9ca0b970",
      "transactionIndex": "0xa",
      "blockHash": "0x7f2a59054aa6e00269949adc583f18219d59d6982ea5cf80e14d9571a963b264",
      "blockNumber": "0x237b4d8",
      "gasUsed": "0x49f5f",
      "effectiveGasPrice": "0x125484",
      "blobGasUsed": "0x79e0",
      "from": "0xc15b6392ffa1964012dc8f3df87b09258e86c60d",
      "to": "0xfe5fe166e70a2772b6d6ca98a9432925088620a5",
      "contractAddress": null,
      "daFootprintGasScalar": "0x138",
      "l1BaseFeeScalar": "0x44d",
      "l1BlobBaseFee": "0xe79e1341",
      "l1BlobBaseFeeScalar": "0xa118b",
      "l1Fee": "0x15a2287fe2f",
      "l1GasPrice": "0x3f492ceb",
      "l1GasUsed": "0x640"
    },
    {
      "status": "0x1",
      "cumulativeGasUsed": "0x1dbeb3",
      "logs": [
        {
          "address": "0xba50cd2a20f6da35d788639e581bca8d0b5d4d5f",
          "topics": [
            "0x8c5be1e5ebec7d5bd14f71427d1e84f3dd0314c0f7b2291e5b200ac8c7c3b925",
            "0x000000000000000000000000fe5fe166e70a2772b6d6ca98a9432925088620a5",
            "0x0000000000000000000000009197ec25246b992797c4dadc479874cb0c473aed"
          ],
          "data": "0x0000000000000000000000000000000000000000000000000000000011e1a300",
          "blockHash": "0x7f2a59054aa6e00269949adc583f18219d59d6982ea5cf80e14d9571a963b264",
          "blockNumber": "0x237b4d8",
          "blockTimestamp": "0x6982c890",
          "transactionHash": "0xbd275231dc90d6cecaab781078b6bafe4a19b06289246b9438c4bab49ca4e33e",
          "transactionIndex": "0xb",
          "logIndex": "0x1f",
          "removed": false
        },
        {
          "address": "0xba50cd2a20f6da35d788639e581bca8d0b5d4d5f",
          "topics": [
            "0xddf252ad1be2c89b69c2b068fc378daa952ba7f163c4a11628f55a4df523b3ef",
            "0x000000000000000000000000fe5fe166e70a2772b6d6ca98a9432925088620a5",
            "0x0000000000000000000000009197ec25246b992797c4dadc479874cb0c473aed"
          ],
          "data": "0x0000000000000000000000000000000000000000000000000000000011e1a300",
          "blockHash": "0x7f2a59054aa6e00269949adc583f18219d59d6982ea5cf80e14d9571a963b264",
          "blockNumber": "0x237b4d8",
          "blockTimestamp": "0x6982c890",
          "transactionHash": "0xbd275231dc90d6cecaab781078b6bafe4a19b06289246b9438c4bab49ca4e33e",
          "transactionIndex": "0xb",
          "logIndex": "0x20",
          "removed": false
        },
        {
          "address": "0xba50cd2a20f6da35d788639e581bca8d0b5d4d5f",
          "topics": [
            "0x8c5be1e5ebec7d5bd14f71427d1e84f3dd0314c0f7b2291e5b200ac8c7c3b925",
            "0x000000000000000000000000fe5fe166e70a2772b6d6ca98a9432925088620a5",
            "0x0000000000000000000000009197ec25246b992797c4dadc479874cb0c473aed"
          ],
          "data": "0x0000000000000000000000000000000000000000000000000000000000000000",
          "blockHash": "0x7f2a59054aa6e00269949adc583f18219d59d6982ea5cf80e14d9571a963b264",
          "blockNumber": "0x237b4d8",
          "blockTimestamp": "0x6982c890",
          "transactionHash": "0xbd275231dc90d6cecaab781078b6bafe4a19b06289246b9438c4bab49ca4e33e",
          "transactionIndex": "0xb",
          "logIndex": "0x21",
          "removed": false
        },
        {
          "address": "0xba50cd2a20f6da35d788639e581bca8d0b5d4d5f",
          "topics": [
            "0x8c5be1e5ebec7d5bd14f71427d1e84f3dd0314c0f7b2291e5b200ac8c7c3b925",
            "0x0000000000000000000000009197ec25246b992797c4dadc479874cb0c473aed",
            "0x000000000000000000000000bbbbbbbbbb9cc5e90e3b3af64bdaf62c37eeffcb"
          ],
          "data": "0x0000000000000000000000000000000000000000000000000000000011e1a300",
          "blockHash": "0x7f2a59054aa6e00269949adc583f18219d59d6982ea5cf80e14d9571a963b264",
          "blockNumber": "0x237b4d8",
          "blockTimestamp": "0x6982c890",
          "transactionHash": "0xbd275231dc90d6cecaab781078b6bafe4a19b06289246b9438c4bab49ca4e33e",
          "transactionIndex": "0xb",
          "logIndex": "0x22",
          "removed": false
        },
        {
          "address": "0xbbbbbbbbbb9cc5e90e3b3af64bdaf62c37eeffcb",
          "topics": [
            "0xedf8870433c83823eb071d3df1caa8d008f12f6440918c20d75a3602cda30fe0",
            "0x9f6bea0e46c43e9b12a8612e12d344314436316f058b5b907e9cc046b2da9aef",
            "0x0000000000000000000000009197ec25246b992797c4dadc479874cb0c473aed",
            "0x0000000000000000000000009197ec25246b992797c4dadc479874cb0c473aed"
          ],
          "data": "0x0000000000000000000000000000000000000000000000000000000011e1a300000000000000000000000000000000000000000000000000000110d9316ec000",
          "blockHash": "0x7f2a59054aa6e00269949adc583f18219d59d6982ea5cf80e14d9571a963b264",
          "blockNumber": "0x237b4d8",
          "blockTimestamp": "0x6982c890",
          "transactionHash": "0xbd275231dc90d6cecaab781078b6bafe4a19b06289246b9438c4bab49ca4e33e",
          "transactionIndex": "0xb",
          "logIndex": "0x23",
          "removed": false
        },
        {
          "address": "0xba50cd2a20f6da35d788639e581bca8d0b5d4d5f",
          "topics": [
            "0xddf252ad1be2c89b69c2b068fc378daa952ba7f163c4a11628f55a4df523b3ef",
            "0x0000000000000000000000009197ec25246b992797c4dadc479874cb0c473aed",
            "0x000000000000000000000000bbbbbbbbbb9cc5e90e3b3af64bdaf62c37eeffcb"
          ],
          "data": "0x0000000000000000000000000000000000000000000000000000000011e1a300",
          "blockHash": "0x7f2a59054aa6e00269949adc583f18219d59d6982ea5cf80e14d9571a963b264",
          "blockNumber": "0x237b4d8",
          "blockTimestamp": "0x6982c890",
          "transactionHash": "0xbd275231dc90d6cecaab781078b6bafe4a19b06289246b9438c4bab49ca4e33e",
          "transactionIndex": "0xb",
          "logIndex": "0x24",
          "removed": false
        },
        {
          "address": "0xba50cd2a20f6da35d788639e581bca8d0b5d4d5f",
          "topics": [
            "0x8c5be1e5ebec7d5bd14f71427d1e84f3dd0314c0f7b2291e5b200ac8c7c3b925",
            "0x0000000000000000000000009197ec25246b992797c4dadc479874cb0c473aed",
            "0x000000000000000000000000bbbbbbbbbb9cc5e90e3b3af64bdaf62c37eeffcb"
          ],
          "data": "0x0000000000000000000000000000000000000000000000000000000000000000",
          "blockHash": "0x7f2a59054aa6e00269949adc583f18219d59d6982ea5cf80e14d9571a963b264",
          "blockNumber": "0x237b4d8",
          "blockTimestamp": "0x6982c890",
          "transactionHash": "0xbd275231dc90d6cecaab781078b6bafe4a19b06289246b9438c4bab49ca4e33e",
          "transactionIndex": "0xb",
          "logIndex": "0x25",
          "removed": false
        },
        {
          "address": "0xfe5fe166e70a2772b6d6ca98a9432925088620a5",
          "topics": [
            "0x4d55162687154640f2294be21d680fea91a811337cd162c5a3d5c625c48de592",
            "0x0000000000000000000000000000000000000000000000000000000000000001"
          ],
          "data": "0x0000000000000000000000000000000000000000000000000000000011e1a300",
          "blockHash": "0x7f2a59054aa6e00269949adc583f18219d59d6982ea5cf80e14d9571a963b264",
          "blockNumber": "0x237b4d8",
          "blockTimestamp": "0x6982c890",
          "transactionHash": "0xbd275231dc90d6cecaab781078b6bafe4a19b06289246b9438c4bab49ca4e33e",
          "transactionIndex": "0xb",
          "logIndex": "0x26",
          "removed": false
        }
      ],
      "logsBloom": "0x00010040002000000000000000001080000040000000000000000000000040000000000000000000004000000000000040000000000000000000000240240000000000000010000000000008800000000000040800040000000000000000000000000000000000000000000000000000000000000000000000040010000000000000000000000008000000000000000000000000000000000000000200000000020000000000000000000000000000000000400000000000000000000000080020000002000000000000000000000000040000000000000000000000000040400010000001000000000000200000000000000000002000800000000000000000",
      "type": "0x2",
      "transactionHash": "0xbd275231dc90d6cecaab781078b6bafe4a19b06289246b9438c4bab49ca4e33e",
      "transactionIndex": "0xb",
      "blockHash": "0x7f2a59054aa6e00269949adc583f18219d59d6982ea5cf80e14d9571a963b264",
      "blockNumber": "0x237b4d8",
      "gasUsed": "0x39d4f",
      "effectiveGasPrice": "0x125484",
      "blobGasUsed": "0x79e0",
      "from": "0xc15b6392ffa1964012dc8f3df87b09258e86c60d",
      "to": "0xfe5fe166e70a2772b6d6ca98a9432925088620a5",
      "contractAddress": null,
      "daFootprintGasScalar": "0x138",
      "l1BaseFeeScalar": "0x44d",
      "l1BlobBaseFee": "0xe79e1341",
      "l1BlobBaseFeeScalar": "0xa118b",
      "l1Fee": "0x15a2287fe2f",
      "l1GasPrice": "0x3f492ceb",
      "l1GasUsed": "0x640"
    }
  ],
  "libraries": [],
  "pending": [],
  "returns": {},
  "timestamp": 1770178703456,
  "chain": 84532,
  "commit": "36dc6a5"
}