{
  "transactions": [
    {
      "hash": "0x66128418af8efd4dcac450acd3339beeafd5bfd6577053b1e4e38db3db844eb4",
      "transactionType": "CALL",
      "contractName": null,
      "contractAddress": "0xba50cd2a20f6da35d788639e581bca8d0b5d4d5f",
      "function": "approve(address,uint256)",
      "arguments": [
        "0xfef5a1dF7BE97614d0a744ddE2333A8CD7d8Bf16",
        "10000000000"
      ],
      "transaction": {
        "from": "0xc15b6392ffa1964012dc8f3df87b09258e86c60d",
        "to": "0xba50cd2a20f6da35d788639e581bca8d0b5d4d5f",
        "gas": "0xf987",
        "value": "0x0",
        "input": "0x095ea7b3000000000000000000000000fef5a1df7be97614d0a744dde2333a8cd7d8bf1600000000000000000000000000000000000000000000000000000002540be400",
        "nonce": "0x34",
        "chainId": "0x14a34"
      },
      "additionalContracts": [],
      "isFixedGasLimit": false
    },
    {
      "hash": "0xf510b3da4539c7a05ec9f09bf6b12f3d32b361e2a666604672dde7f1376e06a3",
      "transactionType": "CALL",
      "contractName": null,
      "contractAddress": "0xfef5a1df7be97614d0a744dde2333a8cd7d8bf16",
      "function": "deposit(uint256,address)",
      "arguments": [
        "10000000000",
        "0xC15b6392FFa1964012dC8F3dF87B09258E86c60D"
      ],
      "transaction": {
        "from": "0xc15b6392ffa1964012dc8f3df87b09258e86c60d",
        "to": "0xfef5a1df7be97614d0a744dde2333a8cd7d8bf16",
        "gas": "0x5b710",
        "value": "0x0",
        "input": "0x6e553f6500000000000000000000000000000000000000000000000000000002540be400000000000000000000000000c15b6392ffa1964012dc8f3df87b09258e86c60d",
        "nonce": "0x35",
        "chainId": "0x14a34"
      },
      "additionalContracts": [],
      "isFixedGasLimit": false
    },
    {
      "hash": "0xcc6c28b55126b5f034537dc42da1df6e3aab5e912d377aaf6bea61f70b2fc733",
      "transactionType": "CALL",
      "contractName": null,
      "contractAddress": "0xfef5a1df7be97614d0a744dde2333a8cd7d8bf16",
      "function": "deployToYield(uint256,uint256)",
      "arguments": [
        "0",
        "5000000000"
      ],
      "transaction": {
        "from": "0xc15b6392ffa1964012dc8f3df87b09258e86c60d",
        "to": "0xfef5a1df7be97614d0a744dde2333a8cd7d8bf16",
        "gas": "0x6f089",
        "value": "0x0",
        "input": "0x0446e74c0000000000000000000000000000000000000000000000000000000000000000000000000000000000000000000000000000000000000000000000012a05f200",
        "nonce": "0x36",
        "chainId": "0x14a34"
      },
      "additionalContracts": [],
      "isFixedGasLimit": false
    },
    {
      "hash": "0x938c4ad6e5ec0d373d1a646b23b2e95f110f27038aed1f229a93e4c178d4ddbc",
      "transactionType": "CALL",
      "contractName": null,
      "contractAddress": "0xfef5a1df7be97614d0a744dde2333a8cd7d8bf16",
      "function": "deployToYield(uint256,uint256)",
      "arguments": [
        "1",
        "3000000000"
      ],
      "transaction": {
        "from": "0xc15b6392ffa1964012dc8f3df87b09258e86c60d",
        "to": "0xfef5a1df7be97614d0a744dde2333a8cd7d8bf16",
        "gas": "0x56dd8",
        "value": "0x0",
        "input": "0x0446e74c000000000000000000000000000000000000000000000000000000000000000100000000000000000000000000000000000000000000000000000000b2d05e00",
        "nonce": "0x37",
        "chainId": "0x14a34"
      },
      "additionalContracts": [],
      "isFixedGasLimit": false
    }
  ],
  "receipts": [
    {
      "status": "0x1",
      "cumulativeGasUsed": "0x1d9e67",
      "logs": [
        {
          "address": "0xba50cd2a20f6da35d788639e581bca8d0b5d4d5f",
          "topics": [
            "0x8c5be1e5ebec7d5bd14f71427d1e84f3dd0314c0f7b2291e5b200ac8c7c3b925",
            "0x000000000000000000000000c15b6392ffa1964012dc8f3df87b09258e86c60d",
            "0x000000000000000000000000fef5a1df7be97614d0a744dde2333a8cd7d8bf16"
          ],
          "data": "0x00000000000000000000000000000000000000000000000000000002540be400",
          "blockHash": "0xf142986bd89b069c14f21885797a81d12d49864e14fe22c76bb0a0f76fedcba8",
          "blockNumber": "0x2375650",
          "blockTimestamp": "0x69820b80",
          "transactionHash": "0xf510b3da4539c7a05ec9f09bf6b12f3d32b361e2a666604672dde7f1376e06a3",
          "transactionIndex": "0x6",
          "logIndex": "0x3f",
          "removed": false
        }
      ],
      "logsBloom": "0x00000000000000000000000000001000000000000000000000000000000000000000000000000000000000000000000000000000000000000000000200200000000000000000000000000000000000000000000000000000000000000000000000000000000000000000000400000000000000000000000000000000000000000000000000000000000000000000000200000020000000200001000000000000020000000000000000000000000000000000000000000000000000000000000000000000000000000000000000000000000000000000000000000000000010000010000000000000000000000000000000000000002000000000000000000000",
      "type": "0x2",
      "transactionHash": "0xf510b3da4539c7a05ec9f09bf6b12f3d32b361e2a666604672dde7f1376e06a3",
      "transactionIndex": "0x6",
      "blockHash": "0xf142986bd89b069c14f21885797a81d12d49864e14fe22c76bb0a0f76fedcba8",
      "blockNumber": "0x2375650",
      "gasUsed": "0xb4a8",
      "effectiveGasPrice": "0x124f80",
      "blobGasUsed": "0x79e0",
      "from": "0xc15b6392ffa1964012dc8f3df87b09258e86c60d",
      "to": "0xba50cd2a20f6da35d788639e581bca8d0b5d4d5f",
      "contractAddress": null,
      "daFootprintGasScalar": "0x138",
      "l1BaseFeeScalar": "0x44d",
      "l1BlobBaseFee": "0x38e40c5",
      "l1BlobBaseFeeScalar": "0xa118b",
      "l1Fee": "0x14e156d28",
      "l1GasPrice": "0x38761213",
      "l1GasUsed": "0x640"
    },
    {
      "status": "0x1",
      "cumulativeGasUsed": "0x2186ca",
      "logs": [
        {
          "address": "0xfef5a1df7be97614d0a744dde2333a8cd7d8bf16",
          "topics": [
            "0x53b2b574a22a0f1e1adeece893b9ac9906dad5c57e5460cd08f2c1ab00aa8ff7"
          ],
          "data": "0x00000000000000000000000000000000000000000000000000000000000003e80000000000000000000000000000000000000000000000000000000000000000",
          "blockHash": "0xf142986bd89b069c14f21885797a81d12d49864e14fe22c76bb0a0f76fedcba8",
          "blockNumber": "0x2375650",
          "blockTimestamp": "0x69820b80",
          "transactionHash": "0x66128418af8efd4dcac450acd3339beeafd5bfd6577053b1e4e38db3db844eb4",
          "transactionIndex": "0x7",
          "logIndex": "0x40",
          "removed": false
        },
        {
          "address": "0xba50cd2a20f6da35d788639e581bca8d0b5d4d5f",
          "topics": [
            "0xddf252ad1be2c89b69c2b068fc378daa952ba7f163c4a11628f55a4df523b3ef",
            "0x000000000000000000000000c15b6392ffa1964012dc8f3df87b09258e86c60d",
            "0x000000000000000000000000fef5a1df7be97614d0a744dde2333a8cd7d8bf16"
          ],
          "data": "0x00000000000000000000000000000000000000000000000000000002540be400",
          "blockHash": "0xf142986bd89b069c14f21885797a81d12d49864e14fe22c76bb0a0f76fedcba8",
          "blockNumber": "0x2375650",
          "blockTimestamp": "0x69820b80",
          "transactionHash": "0x66128418af8efd4dcac450acd3339beeafd5bfd6577053b1e4e38db3db844eb4",
          "transactionIndex": "0x7",
          "logIndex": "0x41",
          "removed": false
        },
        {
          "address": "0xba50cd2a20f6da35d788639e581bca8d0b5d4d5f",
          "topics": [
            "0x8c5be1e5ebec7d5bd14f71427d1e84f3dd0314c0f7b2291e5b200ac8c7c3b925",
            "0x000000000000000000000000c15b6392ffa1964012dc8f3df87b09258e86c60d",
            "0x000000000000000000000000fef5a1df7be97614d0a744dde2333a8cd7d8bf16"
          ],
          "data": "0x0000000000000000000000000000000000000000000000000000000000000000",
          "blockHash": "0xf142986bd89b069c14f21885797a81d12d49864e14fe22c76bb0a0f76fedcba8",
          "blockNumber": "0x2375650",
          "blockTimestamp": "0x69820b80",
          "transactionHash": "0x66128418af8efd4dcac450acd3339beeafd5bfd6577053b1e4e38db3db844eb4",
          "transactionIndex": "0x7",
          "logIndex": "0x42",
          "removed": false
        },
        {
          "address": "0xfef5a1df7be97614d0a744dde2333a8cd7d8bf16",
          "topics": [
            "0xddf252ad1be2c89b69c2b068fc378daa952ba7f163c4a11628f55a4df523b3ef",
            "0x0000000000000000000000000000000000000000000000000000000000000000",
            "0x000000000000000000000000c15b6392ffa1964012dc8f3df87b09258e86c60d"
          ],
          "data": "0x000000000000000000000000000000000000000000000000000009184e72a000",
          "blockHash": "0xf142986bd89b069c14f21885797a81d12d49864e14fe22c76bb0a0f76fedcba8",
          "blockNumber": "0x2375650",
          "blockTimestamp": "0x69820b80",
          "transactionHash": "0x66128418af8efd4dcac450acd3339beeafd5bfd6577053b1e4e38db3db844eb4",
          "transactionIndex": "0x7",
          "logIndex": "0x43",
          "removed": false
        },
        {
          "address": "0xfef5a1df7be97614d0a744dde2333a8cd7d8bf16",
          "topics": [
            "0xdcbc1c05240f31ff3ad067ef1ee35ce4997762752e3a095284754544f4c709d7",
            "0x000000000000000000000000c15b6392ffa1964012dc8f3df87b09258e86c60d",
            "0x000000000000000000000000c15b6392ffa1964012dc8f3df87b09258e86c60d"
          ],
          "data": "0x00000000000000000000000000000000000000000000000000000002540be400000000000000000000000000000000000000000000000000000009184e72a000",
          "blockHash": "0xf142986bd89b069c14f21885797a81d12d49864e14fe22c76bb0a0f76fedcba8",
          "blockNumber": "0x2375650",
          "blockTimestamp": "0x69820b80",
          "transactionHash": "0x66128418af8efd4dcac450acd3339beeafd5bfd6577053b1e4e38db3db844eb4",
          "transactionIndex": "0x7",
          "logIndex": "0x44",
          "removed": false
        }
      ],
      "logsBloom": "0x00000000000000000000000000001000000000000000000000000000000000000000000000000000000000000000000000000000000400000000000200200000000000400000000000000008000000000000000000000000000000000000000000000000020000000000000402000800000000000004000000000010000000000000000010000000000000000000002200000020000000200001000000000000020000000000000000000000000000000000000000000000000000000000000000000002000000000000000000000000000000000008000000000000000030000010000000000000000000800000000000000000002000040000000000000000",
      "type": "0x2",
      "transactionHash": "0x66128418af8efd4dcac450acd3339beeafd5bfd6577053b1e4e38db3db844eb4",
      "transactionIndex": "0x7",
      "blockHash": "0xf142986bd89b069c14f21885797a81d12d49864e14fe22c76bb0a0f76fedcba8",
      "blockNumber": "0x2375650",
      "gasUsed": "0x3e863",
      "effectiveGasPrice": "0x124f80",
      "blobGasUsed": "0x79e0",
      "from": "0xc15b6392ffa1964012dc8f3df87b09258e86c60d",
      "to": "0xfef5a1df7be97614d0a744dde2333a8cd7d8bf16",
      "contractAddress": null,
      "daFootprintGasScalar": "0x138",
      "l1BaseFeeScalar": "0x44d",
      "l1BlobBaseFee": "0x38e40c5",
      "l1BlobBaseFeeScalar": "0xa118b",
      "l1Fee": "0x14e156d28",
      "l1GasPrice": "0x38761213",
      "l1GasUsed": "0x640"
    },
    {
      "status": "0x1",
      "cumulativeGasUsed": "0x264584",
      "logs": [
        {
          "address": "0xba50cd2a20f6da35d788639e581bca8d0b5d4d5f",
          "topics": [
            "0x8c5be1e5ebec7d5bd14f71427d1e84f3dd0314c0f7b2291e5b200ac8c7c3b925",
            "0x000000000000000000000000fef5a1df7be97614d0a744dde2333a8cd7d8bf16",
            "0x000000000000000000000000a482cc7ea5c91af4c219e0fb898afbe3ad66ba99"
          ],
          "data": "0x000000000000000000000000000000000000000000000000000000012a05f200",
          "blockHash": "0x9a9da8abc954746e0037f5a6d0587e2799d8ec0126df979d72b47724069de0f9",
          "blockNumber": "0x2375650",
          "blockTimestamp": "0x69820b80",
          "transactionHash": "0x938c4ad6e5ec0d373d1a646b23b2e95f110f27038aed1f229a93e4c178d4ddbc",
          "transactionIndex": "0x8",
          "logIndex": "0x45",
          "removed": false
        },
        {
          "address": "0xba50cd2a20f6da35d788639e581bca8d0b5d4d5f",
          "topics": [
            "0xddf252ad1be2c89b69c2b068fc378daa952ba7f163c4a11628f55a4df523b3ef",
            "0x000000000000000000000000fef5a1df7be97614d0a744dde2333a8cd7d8bf16",
            "0x000000000000000000000000a482cc7ea5c91af4c219e0fb898afbe3ad66ba99"
          ],
          "data": "0x000000000000000000000000000000000000000000000000000000012a05f200",
          "blockHash": "0x9a9da8abc954746e0037f5a6d0587e2799d8ec0126df979d72b47724069de0f9",
          "blockNumber": "0x2375650",
          "blockTimestamp": "0x69820b80",
          "transactionHash": "0x938c4ad6e5ec0d373d1a646b23b2e95f110f27038aed1f229a93e4c178d4ddbc",
          "transactionIndex": "0x8",
          "logIndex": "0x46",
          "removed": false
        },
        {
          "address": "0xba50cd2a20f6da35d788639e581bca8d0b5d4d5f",
          "topics": [
            "0x8c5be1e5ebec7d5bd14f71427d1e84f3dd0314c0f7b2291e5b200ac8c7c3b925",
            "0x000000000000000000000000fef5a1df7be97614d0a744dde2333a8cd7d8bf16",
            "0x000000000000000000000000a482cc7ea5c91af4c219e0fb898afbe3ad66ba99"
          ],
          "data": "0x0000000000000000000000000000000000000000000000000000000000000000",
          "blockHash": "0x9a9da8abc954746e0037f5a6d0587e2799d8ec0126df979d72b47724069de0f9",
          "blockNumber": "0x2375650",
          "blockTimestamp": "0x69820b80",
          "transactionHash": "0x938c4ad6e5ec0d373d1a646b23b2e95f110f27038aed1f229a93e4c178d4ddbc",
          "transactionIndex": "0x8",
          "logIndex": "0x47",
          "removed": false
        },
        {
          "address": "0xba50cd2a20f6da35d788639e581bca8d0b5d4d5f",
          "topics": [
            "0x8c5be1e5ebec7d5bd14f71427d1e84f3dd0314c0f7b2291e5b200ac8c7c3b925",
            "0x000000000000000000000000a482cc7ea5c91af4c219e0fb898afbe3ad66ba99",
            "0x0000000000000000000000008bab6d1b75f19e9ed9fce8b9bd338844ff79ae27"
          ],
          "data": "0x000000000000000000000000000000000000000000000000000000012a05f200",
          "blockHash": "0x9a9da8abc954746e0037f5a6d0587e2799d8ec0126df979d72b47724069de0f9",
          "blockNumber": "0x2375650",
          "blockTimestamp": "0x69820b80",
          "transactionHash": "0x938c4ad6e5ec0d373d1a646b23b2e95f110f27038aed1f229a93e4c178d4ddbc",
          "transactionIndex": "0x8",
          "logIndex": "0x48",
          "removed": false
        },
        {
          "address": "0x8bab6d1b75f19e9ed9fce8b9bd338844ff79ae27",
          "topics": [
            "0x804c9b842b2748a22bb64b345453a3de7ca54a6ca45ce00d415894979e22897a",
            "0x000000000000000000000000ba50cd2a20f6da35d788639e581bca8d0b5d4d5f"
          ],
          "data": "0x0000000000000000000000000000000000000000000476dc88606658dd8a1f5a00000000000000000000000000000000000000000000000000000000000000000000000000000000000000000000000000000000000ecaff72f85ab873b1bf3d00000000000000000000000000000000000000000400713542b2efc1475225f30000000000000000000000000000000000000000042249eb76e27c25a18da238",
          "blockHash": "0x9a9da8abc954746e0037f5a6d0587e2799d8ec0126df979d72b47724069de0f9",
          "blockNumber": "0x2375650",
          "blockTimestamp": "0x69820b80",
          "transactionHash": "0x938c4ad6e5ec0d373d1a646b23b2e95f110f27038aed1f229a93e4c178d4ddbc",
          "transactionIndex": "0x8",
          "logIndex": "0x49",
          "removed": false
        },
        {
          "address": "0xba50cd2a20f6da35d788639e581bca8d0b5d4d5f",
          "topics": [
            "0xddf252ad1be2c89b69c2b068fc378daa952ba7f163c4a11628f55a4df523b3ef",
            "0x000000000000000000000000a482cc7ea5c91af4c219e0fb898afbe3ad66ba99",
            "0x00000000000000000000000010f1a9d11cdf50041f3f8cb7191cbe2f31750acc"
          ],
          "data": "0x000000000000000000000000000000000000000000000000000000012a05f200",
          "blockHash": "0x9a9da8abc954746e0037f5a6d0587e2799d8ec0126df979d72b47724069de0f9",
          "blockNumber": "0x2375650",
          "blockTimestamp": "0x69820b80",
          "transactionHash": "0x938c4ad6e5ec0d373d1a646b23b2e95f110f27038aed1f229a93e4c178d4ddbc",
          "transactionIndex": "0x8",
          "logIndex": "0x4a",
          "removed": false
        },
        {
          "address": "0xba50cd2a20f6da35d788639e581bca8d0b5d4d5f",
          "topics": [
            "0x8c5be1e5ebec7d5bd14f71427d1e84f3dd0314c0f7b2291e5b200ac8c7c3b925",
            "0x000000000000000000000000a482cc7ea5c91af4c219e0fb898afbe3ad66ba99",
            "0x0000000000000000000000008bab6d1b75f19e9ed9fce8b9bd338844ff79ae27"
          ],
          "data": "0x0000000000000000000000000000000000000000000000000000000000000000",
          "blockHash": "0x9a9da8abc954746e0037f5a6d0587e2799d8ec0126df979d72b47724069de0f9",
          "blockNumber": "0x2375650",
          "blockTimestamp": "0x69820b80",
          "transactionHash": "0x938c4ad6e5ec0d373d1a646b23b2e95f110f27038aed1f229a93e4c178d4ddbc",
          "transactionIndex": "0x8",
          "logIndex": "0x4b",
          "removed": false
        },
        {
          "address": "0x10f1a9d11cdf50041f3f8cb7191cbe2f31750acc",
          "topics": [
            "0xddf252ad1be2c89b69c2b068fc378daa952ba7f163c4a11628f55a4df523b3ef",
            "0x0000000000000000000000000000000000000000000000000000000000000000",
            "0x000000000000000000000000a482cc7ea5c91af4c219e0fb898afbe3ad66ba99"
          ],
          "data": "0x000000000000000000000000000000000000000000000000000000012a05f1ff",
          "blockHash": "0x9a9da8abc954746e0037f5a6d0587e2799d8ec0126df979d72b47724069de0f9",
          "blockNumber": "0x2375650",
          "blockTimestamp": "0x69820b80",
          "transactionHash": "0x938c4ad6e5ec0d373d1a646b23b2e95f110f27038aed1f229a93e4c178d4ddbc",
          "transactionIndex": "0x8",
          "logIndex": "0x4c",
          "removed": false
        },
        {
          "address": "0x10f1a9d11cdf50041f3f8cb7191cbe2f31750acc",
          "topics": [
            "0x458f5fa412d0f69b08dd84872b0215675cc67bc1d5b6fd93300a1c3878b86196",
            "0x000000000000000000000000a482cc7ea5c91af4c219e0fb898afbe3ad66ba99",
            "0x000000000000000000000000a482cc7ea5c91af4c219e0fb898afbe3ad66ba99"
          ],
          "data": "0x000000000000000000000000000000000000000000000000000000012a05f1ff000000000000000000000000000000000000000000000000000000000000000000000000000000000000000000000000000000000400713542b2efc1475225f3",
          "blockHash": "0x9a9da8abc954746e0037f5a6d0587e2799d8ec0126df979d72b47724069de0f9",
          "blockNumber": "0x2375650",
          "blockTimestamp": "0x69820b80",
          "transactionHash": "0x938c4ad6e5ec0d373d1a646b23b2e95f110f27038aed1f229a93e4c178d4ddbc",
          "transactionIndex": "0x8",
          "logIndex": "0x4d",
          "removed": false
        },
        {
          "address": "0x8bab6d1b75f19e9ed9fce8b9bd338844ff79ae27",
          "topics": [
            "0x00058a56ea94653cdf4f152d227ace22d4c00ad99e2a43f58cb7d9e3feb295f2",
            "0x000000000000000000000000ba50cd2a20f6da35d788639e581bca8d0b5d4d5f",
            "0x000000000000000000000000a482cc7ea5c91af4c219e0fb898afbe3ad66ba99"
          ],
          "data": "0x",
          "blockHash": "0x9a9da8abc954746e0037f5a6d0587e2799d8ec0126df979d72b47724069de0f9",
          "blockNumber": "0x2375650",
          "blockTimestamp": "0x69820b80",
          "transactionHash": "0x938c4ad6e5ec0d373d1a646b23b2e95f110f27038aed1f229a93e4c178d4ddbc",
          "transactionIndex": "0x8",
          "logIndex": "0x4e",
          "removed": false
        },
        {
          "address": "0x8bab6d1b75f19e9ed9fce8b9bd338844ff79ae27",
          "topics": [
            "0x2b627736bca15cd5381dcf80b0bf11fd197d01a037c52b927a881a10fb73ba61",
            "0x000000000000000000000000ba50cd2a20f6da35d788639e581bca8d0b5d4d5f",
            "0x000000000000000000000000a482cc7ea5c91af4c219e0fb898afbe3ad66ba99",
            "0x0000000000000000000000000000000000000000000000000000000000000000"
          ],
          "data": "0x000000000000000000000000a482cc7ea5c91af4c219e0fb898afbe3ad66ba99000000000000000000000000000000000000000000000000000000012a05f200",
          "blockHash": "0x9a9da8abc954746e0037f5a6d0587e2799d8ec0126df979d72b47724069de0f9",
          "blockNumber": "0x2375650",
          "blockTimestamp": "0x69820b80",
          "transactionHash": "0x938c4ad6e5ec0d373d1a646b23b2e95f110f27038aed1f229a93e4c178d4ddbc",
          "transactionIndex": "0x8",
          "logIndex": "0x4f",
          "removed": false
        },
        {
          "address": "0xfef5a1df7be97614d0a744dde2333a8cd7d8bf16",
          "topics": [
            "0x4d55162687154640f2294be21d680fea91a811337cd162c5a3d5c625c48de592",
            "0x0000000000000000000000000000000000000000000000000000000000000000"
          ],
          "data": "0x000000000000000000000000000000000000000000000000000000012a05f200",
          "blockHash": "0x9a9da8abc954746e0037f5a6d0587e2799d8ec0126df979d72b47724069de0f9",
          "blockNumber": "0x2375650",
          "blockTimestamp": "0x69820b80",
          "transactionHash": "0x938c4ad6e5ec0d373d1a646b23b2e95f110f27038aed1f229a93e4c178d4ddbc",
          "transactionIndex": "0x8",
          "logIndex": "0x50",
          "removed": false
        }
      ],
      "logsBloom": "0x00000040000008000080000000001000400000000000800000000000000040000000000000000000000000000004000000000000000400000000000200200000000000008000000000080408020800000000000000000000000000040000000000000000020000000000000400800800000000000000100002000010000000000000000090000000000000000000000000002000000000200000000000000000020000000000000000000000040000000000000004000000000000100000018002000002000000000004002040000000040000000400000000000000000030000010000000000000000000800000200040000000002000000000400000000000",
      "type": "0x2",
      "transactionHash": "0x938c4ad6e5ec0d373d1a646b23b2e95f110f27038aed1f229a93e4c178d4ddbc",
      "transactionIndex": "0x8",
      "blockHash": "0x9a9da8abc954746e0037f5a6d0587e2799d8ec0126df979d72b47724069de0f9",
      "blockNumber": "0x2375650",
      "gasUsed": "0x4beba",
      "effectiveGasPrice": "0x124f80",
      "blobGasUsed": "0x79e0",
      "from": "0xc15b6392ffa1964012dc8f3df87b09258e86c60d",
      "to": "0xfef5a1df7be97614d0a744dde2333a8cd7d8bf16",
      "contractAddress": null,
      "daFootprintGasScalar": "0x138",
      "l1BaseFeeScalar": "0x44d",
      "l1BlobBaseFee": "0x38e40c5",
      "l1BlobBaseFeeScalar": "0xa118b",
      "l1Fee": "0x14e156d28",
      "l1GasPrice": "0x38761213",
      "l1GasUsed": "0x640"
    },
    {
      "status": "0x1",
      "cumulativeGasUsed": "0x29fbd7",
      "logs": [
        {
          "address": "0xba50cd2a20f6da35d788639e581bca8d0b5d4d5f",
          "topics": [
            "0x8c5be1e5ebec7d5bd14f71427d1e84f3dd0314c0f7b2291e5b200ac8c7c3b925",
            "0x000000000000000000000000fef5a1df7be97614d0a744dde2333a8cd7d8bf16",
            "0x000000000000000000000000343bf9575518b91d398fb1d776804004aa82aa7e"
          ],
          "data": "0x00000000000000000000000000000000000000000000000000000000b2d05e00",
          "blockHash": "0x9a9da8abc954746e0037f5a6d0587e2799d8ec0126df979d72b47724069de0f9",
          "blockNumber": "0x2375650",
          "blockTimestamp": "0x69820b80",
          "transactionHash": "0xcc6c28b55126b5f034537dc42da1df6e3aab5e912d377aaf6bea61f70b2fc733",
          "transactionIndex": "0x9",
          "logIndex": "0x51",
          "removed": false
        },
        {
          "address": "0xba50cd2a20f6da35d788639e581bca8d0b5d4d5f",
          "topics": [
            "0xddf252ad1be2c89b69c2b068fc378daa952ba7f163c4a11628f55a4df523b3ef",
            "0x000000000000000000000000fef5a1df7be97614d0a744dde2333a8cd7d8bf16",
            "0x000000000000000000000000343bf9575518b91d398fb1d776804004aa82aa7e"
          ],
          "data": "0x00000000000000000000000000000000000000000000000000000000b2d05e00",
          "blockHash": "0x9a9da8abc954746e0037f5a6d0587e2799d8ec0126df979d72b47724069de0f9",
          "blockNumber": "0x2375650",
          "blockTimestamp": "0x69820b80",
          "transactionHash": "0xcc6c28b55126b5f034537dc42da1df6e3aab5e912d377aaf6bea61f70b2fc733",
          "transactionIndex": "0x9",
          "logIndex": "0x52",
          "removed": false
        },
        {
          "address": "0xba50cd2a20f6da35d788639e581bca8d0b5d4d5f",
          "topics": [
            "0x8c5be1e5ebec7d5bd14f71427d1e84f3dd0314c0f7b2291e5b200ac8c7c3b925",
            "0x000000000000000000000000fef5a1df7be97614d0a744dde2333a8cd7d8bf16",
            "0x000000000000000000000000343bf9575518b91d398fb1d776804004aa82aa7e"
          ],
          "data": "0x0000000000000000000000000000000000000000000000000000000000000000",
          "blockHash": "0x9a9da8abc954746e0037f5a6d0587e2799d8ec0126df979d72b47724069de0f9",
          "blockNumber": "0x2375650",
          "blockTimestamp": "0x69820b80",
          "transactionHash": "0xcc6c28b55126b5f034537dc42da1df6e3aab5e912d377aaf6bea61f70b2fc733",
          "transactionIndex": "0x9",
          "logIndex": "0x53",
          "removed": false
        },
        {
          "address": "0xba50cd2a20f6da35d788639e581bca8d0b5d4d5f",
          "topics": [
            "0x8c5be1e5ebec7d5bd14f71427d1e84f3dd0314c0f7b2291e5b200ac8c7c3b925",
            "0x000000000000000000000000343bf9575518b91d398fb1d776804004aa82aa7e",
            "0x00000000000000000000000046e3f1c4729444e9b105b293e2f332fa6f692415"
          ],
          "data": "0x00000000000000000000000000000000000000000000000000000000b2d05e00",
          "blockHash": "0x9a9da8abc954746e0037f5a6d0587e2799d8ec0126df979d72b47724069de0f9",
          "blockNumber": "0x2375650",
          "blockTimestamp": "0x69820b80",
          "transactionHash": "0xcc6c28b55126b5f034537dc42da1df6e3aab5e912d377aaf6bea61f70b2fc733",
          "transactionIndex": "0x9",
          "logIndex": "0x54",
          "removed": false
        },
        {
          "address": "0xba50cd2a20f6da35d788639e581bca8d0b5d4d5f",
          "topics": [
            "0xddf252ad1be2c89b69c2b068fc378daa952ba7f163c4a11628f55a4df523b3ef",
            "0x000000000000000000000000343bf9575518b91d398fb1d776804004aa82aa7e",
            "0x00000000000000000000000046e3f1c4729444e9b105b293e2f332fa6f692415"
          ],
          "data": "0x00000000000000000000000000000000000000000000000000000000b2d05e00",
          "blockHash": "0x9a9da8abc954746e0037f5a6d0587e2799d8ec0126df979d72b47724069de0f9",
          "blockNumber": "0x2375650",
          "blockTimestamp": "0x69820b80",
          "transactionHash": "0xcc6c28b55126b5f034537dc42da1df6e3aab5e912d377aaf6bea61f70b2fc733",
          "transactionIndex": "0x9",
          "logIndex": "0x55",
          "removed": false
        },
        {
          "address": "0xba50cd2a20f6da35d788639e581bca8d0b5d4d5f",
          "topics": [
            "0x8c5be1e5ebec7d5bd14f71427d1e84f3dd0314c0f7b2291e5b200ac8c7c3b925",
            "0x000000000000000000000000343bf9575518b91d398fb1d776804004aa82aa7e",
            "0x00000000000000000000000046e3f1c4729444e9b105b293e2f332fa6f692415"
          ],
          "data": "0x0000000000000000000000000000000000000000000000000000000000000000",
          "blockHash": "0x9a9da8abc954746e0037f5a6d0587e2799d8ec0126df979d72b47724069de0f9",
          "blockNumber": "0x2375650",
          "blockTimestamp": "0x69820b80",
          "transactionHash": "0xcc6c28b55126b5f034537dc42da1df6e3aab5e912d377aaf6bea61f70b2fc733",
          "transactionIndex": "0x9",
          "logIndex": "0x56",
          "removed": false
        },
        {
          "address": "0x46e3f1c4729444e9b105b293e2f332fa6f692415",
          "topics": [
            "0xddf252ad1be2c89b69c2b068fc378daa952ba7f163c4a11628f55a4df523b3ef",
            "0x0000000000000000000000000000000000000000000000000000000000000000",
            "0x000000000000000000000000343bf9575518b91d398fb1d776804004aa82aa7e"
          ],
          "data": "0x00000000000000000000000000000000000000000000000000000000b2d05e00",
          "blockHash": "0x9a9da8abc954746e0037f5a6d0587e2799d8ec0126df979d72b47724069de0f9",
          "blockNumber": "0x2375650",
          "blockTimestamp": "0x69820b80",
          "transactionHash": "0xcc6c28b55126b5f034537dc42da1df6e3aab5e912d377aaf6bea61f70b2fc733",
          "transactionIndex": "0x9",
          "logIndex": "0x57",
          "removed": false
        },
        {
          "address": "0x46e3f1c4729444e9b105b293e2f332fa6f692415",
          "topics": [
            "0xdcbc1c05240f31ff3ad067ef1ee35ce4997762752e3a095284754544f4c709d7",
            "0x000000000000000000000000343bf9575518b91d398fb1d776804004aa82aa7e",
            "0x000000000000000000000000343bf9575518b91d398fb1d776804004aa82aa7e"
          ],
          "data": "0x00000000000000000000000000000000000000000000000000000000b2d05e0000000000000000000000000000000000000000000000000000000000b2d05e00",
          "blockHash": "0x9a9da8abc954746e0037f5a6d0587e2799d8ec0126df979d72b47724069de0f9",
          "blockNumber": "0x2375650",
          "blockTimestamp": "0x69820b80",
          "transactionHash": "0xcc6c28b55126b5f034537dc42da1df6e3aab5e912d377aaf6bea61f70b2fc733",
          "transactionIndex": "0x9",
          "logIndex": "0x58",
          "removed": false
        },
        {
          "address": "0xfef5a1df7be97614d0a744dde2333a8cd7d8bf16",
          "topics": [
            "0x4d55162687154640f2294be21d680fea91a811337cd162c5a3d5c625c48de592",
            "0x0000000000000000000000000000000000000000000000000000000000000001"
          ],
          "data": "0x00000000000000000000000000000000000000000000000000000000b2d05e00",
          "blockHash": "0x9a9da8abc954746e0037f5a6d0587e2799d8ec0126df979d72b47724069de0f9",
          "blockNumber": "0x2375650",
          "blockTimestamp": "0x69820b80",
          "transactionHash": "0xcc6c28b55126b5f034537dc42da1df6e3aab5e912d377aaf6bea61f70b2fc733",
          "transactionIndex": "0x9",
          "logIndex": "0x59",
          "removed": false
        }
      ],
      "logsBloom": "0x00000040000000000000000000001000000000000000000000000000000040000080000000000000000000000000000000000000000400000000000200240000000000400000000000000008000000000000000000040000000000400000000000000000020000000000000400000800000040000004000000000010000000000000000010000000000000080000000000000000000000200000200000000000020000000000000000000000000000080000000000000000000000000000000000000002000000090000000000000000040000000008000000000000000070000010000000000000000010800000000000000000002000000000000000000000",
      "type": "0x2",
      "transactionHash": "0xcc6c28b55126b5f034537dc42da1df6e3aab5e912d377aaf6bea61f70b2fc733",
      "transactionIndex": "0x9",
      "blockHash": "0x9a9da8abc954746e0037f5a6d0587e2799d8ec0126df979d72b47724069de0f9",
      "blockNumber": "0x2375650",
      "gasUsed": "0x3b653",
      "effectiveGasPrice": "0x124f80",
      "blobGasUsed": "0x79e0",
      "from": "0xc15b6392ffa1964012dc8f3df87b09258e86c60d",
      "to": "0xfef5a1df7be97614d0a744dde2333a8cd7d8bf16",
      "contractAddress": null,
      "daFootprintGasScalar": "0x138",
      "l1BaseFeeScalar": "0x44d",
      "l1BlobBaseFee": "0x38e40c5",
      "l1BlobBaseFeeScalar": "0xa118b",
      "l1Fee": "0x14e156d28",
      "l1GasPrice": "0x38761213",
      "l1GasUsed": "0x640"
    }
  ],
  "libraries": [],
  "pending": [],
  "returns": {},
  "timestamp": 1770130303260,
  "chain": 84532,
  "commit": "a7e667c"
}