{
  "transactions": [
    {
      "hash": "0x626165ae72e5e087b498b2025f1a66058ee87de70bf6ccc5c164fce5fb383af4",
      "transactionType": "CALL",
      "contractName": null,
      "contractAddress": "0xba50cd2a20f6da35d788639e581bca8d0b5d4d5f",
      "function": "approve(address,uint256)",
      "arguments": [
        "0xF24A5664ffFeC3bB36fd211BDCcE7e98A7d41F9A",
        "10000000000"
      ],
      "transaction": {
        "from": "0xc15b6392ffa1964012dc8f3df87b09258e86c60d",
        "to": "0xba50cd2a20f6da35d788639e581bca8d0b5d4d5f",
        "gas": "0xf987",
        "value": "0x0",
        "input": "0x095ea7b3000000000000000000000000f24a5664fffec3bb36fd211bdcce7e98a7d41f9a00000000000000000000000000000000000000000000000000000002540be400",
        "nonce": "0x9",
        "chainId": "0x14a34"
      },
      "additionalContracts": [],
      "isFixedGasLimit": false
    },
    {
      "hash": "0x6836316f9059be554d40c30b4e0d39a20a49ad8e35bfda171775b1aa31a116a5",
      "transactionType": "CALL",
      "contractName": null,
      "contractAddress": "0xf24a5664fffec3bb36fd211bdcce7e98a7d41f9a",
      "function": "deposit(uint256,address)",
      "arguments": [
        "10000000000",
        "0xC15b6392FFa1964012dC8F3dF87B09258E86c60D"
      ],
      "transaction": {
        "from": "0xc15b6392ffa1964012dc8f3df87b09258e86c60d",
        "to": "0xf24a5664fffec3bb36fd211bdcce7e98a7d41f9a",
        "gas": "0x4b578",
        "value": "0x0",
        "input": "0x6e553f6500000000000000000000000000000000000000000000000000000002540be400000000000000000000000000c15b6392ffa1964012dc8f3df87b09258e86c60d",
        "nonce": "0xa",
        "chainId": "0x14a34"
      },
      "additionalContracts": [],
      "isFixedGasLimit": false
    },
    {
      "hash": "0xce6875b9d14c0f50894ad360cea9c473d597800691380863ed33bb48bcc1e33e",
      "transactionType": "CALL",
      "contractName": null,
      "contractAddress": "0xf24a5664fffec3bb36fd211bdcce7e98a7d41f9a",
      "function": "deployToYield(uint256,uint256)",
      "arguments": [
        "0",
        "4000000000"
      ],
      "transaction": {
        "from": "0xc15b6392ffa1964012dc8f3df87b09258e86c60d",
        "to": "0xf24a5664fffec3bb36fd211bdcce7e98a7d41f9a",
        "gas": "0x663a2",
        "value": "0x0",
        "input": "0x0446e74c000000000000000000000000000000000000000000000000000000000000000000000000000000000000000000000000000000000000000000000000ee6b2800",
        "nonce": "0xb",
        "chainId": "0x14a34"
      },
      "additionalContracts": [],
      "isFixedGasLimit": false
    },
    {
      "hash": "0xadf6c8fc33411de2c86f74e448d654088cd4007257b4f539579ded7e5dad468c",
      "transactionType": "CALL",
      "contractName": null,
      "contractAddress": "0xf24a5664fffec3bb36fd211bdcce7e98a7d41f9a",
      "function": "deployToYield(uint256,uint256)",
      "arguments": [
        "1",
        "3000000000"
      ],
      "transaction": {
        "from": "0xc15b6392ffa1964012dc8f3df87b09258e86c60d",
        "to": "0xf24a5664fffec3bb36fd211bdcce7e98a7d41f9a",
        "gas": "0x54a27",
        "value": "0x0",
        "input": "0x0446e74c000000000000000000000000000000000000000000000000000000000000000100000000000000000000000000000000000000000000000000000000b2d05e00",
        "nonce": "0xc",
        "chainId": "0x14a34"
      },
      "additionalContracts": [],
      "isFixedGasLimit": false
    },
    {
      "hash": "0x8d436221710e28448bb8f79ed994351bbff5a4ea348e1a9b06ec55194af74243",
      "transactionType": "CALL",
      "contractName": null,
      "contractAddress": "0xf24a5664fffec3bb36fd211bdcce7e98a7d41f9a",
      "function": "onReport(bytes,bytes)",
      "arguments": [
        "0x",
        "0x00000000000000000000000000000000000000000000000000000000000000000000000000000000000000000000000000000000000000000000000000000040000000000000000000000000000000000000000000000000000000000000028000000000000000000000000000000000000000000000000000000000000000c0000000000000000000000000000000000000000000000000000000000000012000000000000000000000000000000000000000000000000000000000000036b000000000000000000000000000000000000000000000000000000000000009c4000000000000000000000000000000000000000000000000000000006981cef20000000000000000000000000000000000000000000000000000000000000001000000000000000000000000000000000000000000000000000000000000000200000000000000000000000093ff4966dc16690bb2cbff40d99a116bf6781a51000000000000000000000000ccff688e68372f70a27e42070a273a6cf580189e000000000000000000000000000000000000000000000000000000000000000200000000000000000000000000000000000000000000000000000000000005dc00000000000000000000000000000000000000000000000000000000000007d000000000000000000000000000000000000000000000000000000000000013880000000000000000000000000000000000000000000000000000000000000000000000000000000000000000000000000000000000000000000000000000000100000000000000000000000000000000000000000000000000000000000003e800000000000000000000000000000000000000000000000000000000000005dc000000000000000000000000000000000000000000000000000000000000138800000000000000000000000000000000000000000000000000000000000000000000000000000000000000000000000000000000000000000000000000000000"
      ],
      "transaction": {
        "from": "0xc15b6392ffa1964012dc8f3df87b09258e86c60d",
        "to": "0xf24a5664fffec3bb36fd211bdcce7e98a7d41f9a",
        "gas": "0x29489",
        "value": "0x0",
        "input": "0x805f213200000000000000000000000000000000000000000000000000000000000000400000000000000000000000000000000000000000000000000000000000000060000000000000000000000000000000000000000000000000000000000000000000000000000000000000000000000000000000000000000000000000000002e000000000000000000000000000000000000000000000000000000000000000000000000000000000000000000000000000000000000000000000000000000040000000000000000000000000000000000000000000000000000000000000028000000000000000000000000000000000000000000000000000000000000000c0000000000000000000000000000000000000000000000000000000000000012000000000000000000000000000000000000000000000000000000000000036b000000000000000000000000000000000000000000000000000000000000009c4000000000000000000000000000000000000000000000000000000006981cef20000000000000000000000000000000000000000000000000000000000000001000000000000000000000000000000000000000000000000000000000000000200000000000000000000000093ff4966dc16690bb2cbff40d99a116bf6781a51000000000000000000000000ccff688e68372f70a27e42070a273a6cf580189e000000000000000000000000000000000000000000000000000000000000000200000000000000000000000000000000000000000000000000000000000005dc00000000000000000000000000000000000000000000000000000000000007d000000000000000000000000000000000000000000000000000000000000013880000000000000000000000000000000000000000000000000000000000000000000000000000000000000000000000000000000000000000000000000000000100000000000000000000000000000000000000000000000000000000000003e800000000000000000000000000000000000000000000000000000000000005dc000000000000000000000000000000000000000000000000000000000000138800000000000000000000000000000000000000000000000000000000000000000000000000000000000000000000000000000000000000000000000000000000",
        "nonce": "0xd",
        "chainId": "0x14a34"
      },
      "additionalContracts": [],
      "isFixedGasLimit": false
    },
    {
      "hash": "0xdeca64094b1bee5341d950abccb481511aaa8733a2476808fdb97468a24a4aa8",
      "transactionType": "CALL",
      "contractName": null,
      "contractAddress": "0xf24a5664fffec3bb36fd211bdcce7e98a7d41f9a",
      "function": "onReport(bytes,bytes)",
      "arguments": [
        "0x",
        "0x00000000000000000000000000000000000000000000000000000000000000010000000000000000000000000000000000000000000000000000000000000040000000000000000000000000000000000000000000000000000000000000004000000000000000000000000093ff4966dc16690bb2cbff40d99a116bf6781a510000000000000000000000000000000000000000000000000000000077359400"
      ],
      "transaction": {
        "from": "0xc15b6392ffa1964012dc8f3df87b09258e86c60d",
        "to": "0xf24a5664fffec3bb36fd211bdcce7e98a7d41f9a",
        "gas": "0x3e64d",
        "value": "0x0",
        "input": "0x805f213200000000000000000000000000000000000000000000000000000000000000400000000000000000000000000000000000000000000000000000000000000060000000000000000000000000000000000000000000000000000000000000000000000000000000000000000000000000000000000000000000000000000000a000000000000000000000000000000000000000000000000000000000000000010000000000000000000000000000000000000000000000000000000000000040000000000000000000000000000000000000000000000000000000000000004000000000000000000000000093ff4966dc16690bb2cbff40d99a116bf6781a510000000000000000000000000000000000000000000000000000000077359400",
        "nonce": "0xe",
        "chainId": "0x14a34"
      },
      "additionalContracts": [],
      "isFixedGasLimit": false
    },
    {
      "hash": "0xea6553d84b164a8b020560f9bf8cf5cb053b012c610db426cc23cebc210766ba",
      "transactionType": "CALL",
      "contractName": null,
      "contractAddress": "0xf24a5664fffec3bb36fd211bdcce7e98a7d41f9a",
      "function": "requestWithdraw(uint256)",
      "arguments": [
        "2000000000000"
      ],
      "transaction": {
        "from": "0xc15b6392ffa1964012dc8f3df87b09258e86c60d",
        "to": "0xf24a5664fffec3bb36fd211bdcce7e98a7d41f9a",
        "gas": "0x3f3c9",
        "value": "0x0",
        "input": "0x745400c9000000000000000000000000000000000000000000000000000001d1a94a2000",
        "nonce": "0xf",
        "chainId": "0x14a34"
      },
      "additionalContracts": [],
      "isFixedGasLimit": false
    }
  ],
  "receipts": [
    {
      "status": "0x1",
      "cumulativeGasUsed": "0x211fa3",
      "logs": [
        {
          "address": "0xba50cd2a20f6da35d788639e581bca8d0b5d4d5f",
          "topics": [
            "0x8c5be1e5ebec7d5bd14f71427d1e84f3dd0314c0f7b2291e5b200ac8c7c3b925",
            "0x000000000000000000000000c15b6392ffa1964012dc8f3df87b09258e86c60d",
            "0x000000000000000000000000f24a5664fffec3bb36fd211bdcce7e98a7d41f9a"
          ],
          "data": "0x00000000000000000000000000000000000000000000000000000002540be400",
          "blockHash": "0x35486bf0364bbb3e71ea3e597e5fd76c1ef59da3551938c766624c3509f20079",
          "blockNumber": "0x2373828",
          "blockTimestamp": "0x6981cf30",
          "transactionHash": "0x6836316f9059be554d40c30b4e0d39a20a49ad8e35bfda171775b1aa31a116a5",
          "transactionIndex": "0x3",
          "logIndex": "0x58",
          "removed": false
        }
      ],
      "logsBloom": "0x00000000000000000000000000001000000000000000000000000000000000000000000000000000000000000000000000000000000000000000000200200000000000000000000000000000000000000000000000000000000000000000000000000000000000000000000000000000000000000000000000000000000000000000000000000000000000000000000200000020000000000001000000000000020000000000000000000000000000000020000000000000000000000000000000000000000000000000000000000000000000000000002000000000000000000010000000000000000000000000000000000000002000000000800000000000",
      "type": "0x2",
      "transactionHash": "0x6836316f9059be554d40c30b4e0d39a20a49ad8e35bfda171775b1aa31a116a5",
      "transactionIndex": "0x3",
      "blockHash": "0x35486bf0364bbb3e71ea3e597e5fd76c1ef59da3551938c766624c3509f20079",
      "blockNumber": "0x2373828",
      "gasUsed": "0xb4a8",
      "effectiveGasPrice": "0x124f80",
      "blobGasUsed": "0x79e0",
      "from": "0xc15b6392ffa1964012dc8f3df87b09258e86c60d",
      "to": "0xba50cd2a20f6da35d788639e581bca8d0b5d4d5f",
      "contractAddress": null,
      "daFootprintGasScalar": "0x138",
      "l1BaseFeeScalar": "0x44d",
      "l1BlobBaseFee": "0x455c934",
      "l1BlobBaseFeeScalar": "0xa118b",
      "l1Fee": "0x18f3a8138",
      "l1GasPrice": "0x403f1349",
      "l1GasUsed": "0x640"
    },
    {
      "status": "0x1",
      "cumulativeGasUsed": "0x248861",
      "logs": [
        {
          "address": "0xf24a5664fffec3bb36fd211bdcce7e98a7d41f9a",
          "topics": [
            "0x53b2b574a22a0f1e1adeece893b9ac9906dad5c57e5460cd08f2c1ab00aa8ff7"
          ],
          "data": "0x00000000000000000000000000000000000000000000000000000000000003e80000000000000000000000000000000000000000000000000000000000000000",
          "blockHash": "0x35486bf0364bbb3e71ea3e597e5fd76c1ef59da3551938c766624c3509f20079",
          "blockNumber": "0x2373828",
          "blockTimestamp": "0x6981cf30",
          "transactionHash": "0xadf6c8fc33411de2c86f74e448d654088cd4007257b4f539579ded7e5dad468c",
          "transactionIndex": "0x4",
          "logIndex": "0x59",
          "removed": false
        },
        {
          "address": "0xba50cd2a20f6da35d788639e581bca8d0b5d4d5f",
          "topics": [
            "0xddf252ad1be2c89b69c2b068fc378daa952ba7f163c4a11628f55a4df523b3ef",
            "0x000000000000000000000000c15b6392ffa1964012dc8f3df87b09258e86c60d",
            "0x000000000000000000000000f24a5664fffec3bb36fd211bdcce7e98a7d41f9a"
          ],
          "data": "0x00000000000000000000000000000000000000000000000000000002540be400",
          "blockHash": "0x35486bf0364bbb3e71ea3e597e5fd76c1ef59da3551938c766624c3509f20079",
          "blockNumber": "0x2373828",
          "blockTimestamp": "0x6981cf30",
          "transactionHash": "0xadf6c8fc33411de2c86f74e448d654088cd4007257b4f539579ded7e5dad468c",
          "transactionIndex": "0x4",
          "logIndex": "0x5a",
          "removed": false
        },
        {
          "address": "0xba50cd2a20f6da35d788639e581bca8d0b5d4d5f",
          "topics": [
            "0x8c5be1e5ebec7d5bd14f71427d1e84f3dd0314c0f7b2291e5b200ac8c7c3b925",
            "0x000000000000000000000000c15b6392ffa1964012dc8f3df87b09258e86c60d",
            "0x000000000000000000000000f24a5664fffec3bb36fd211bdcce7e98a7d41f9a"
          ],
          "data": "0x0000000000000000000000000000000000000000000000000000000000000000",
          "blockHash": "0x35486bf0364bbb3e71ea3e597e5fd76c1ef59da3551938c766624c3509f20079",
          "blockNumber": "0x2373828",
          "blockTimestamp": "0x6981cf30",
          "transactionHash": "0xadf6c8fc33411de2c86f74e448d654088cd4007257b4f539579ded7e5dad468c",
          "transactionIndex": "0x4",
          "logIndex": "0x5b",
          "removed": false
        },
        {
          "address": "0xf24a5664fffec3bb36fd211bdcce7e98a7d41f9a",
          "topics": [
            "0xddf252ad1be2c89b69c2b068fc378daa952ba7f163c4a11628f55a4df523b3ef",
            "0x0000000000000000000000000000000000000000000000000000000000000000",
            "0x000000000000000000000000c15b6392ffa1964012dc8f3df87b09258e86c60d"
          ],
          "data": "0x000000000000000000000000000000000000000000000000000009184e72a000",
          "blockHash": "0x35486bf0364bbb3e71ea3e597e5fd76c1ef59da3551938c766624c3509f20079",
          "blockNumber": "0x2373828",
          "blockTimestamp": "0x6981cf30",
          "transactionHash": "0xadf6c8fc33411de2c86f74e448d654088cd4007257b4f539579ded7e5dad468c",
          "transactionIndex": "0x4",
          "logIndex": "0x5c",
          "removed": false
        },
        {
          "address": "0xf24a5664fffec3bb36fd211bdcce7e98a7d41f9a",
          "topics": [
            "0xdcbc1c05240f31ff3ad067ef1ee35ce4997762752e3a095284754544f4c709d7",
            "0x000000000000000000000000c15b6392ffa1964012dc8f3df87b09258e86c60d",
            "0x000000000000000000000000c15b6392ffa1964012dc8f3df87b09258e86c60d"
          ],
          "data": "0x00000000000000000000000000000000000000000000000000000002540be400000000000000000000000000000000000000000000000000000009184e72a000",
          "blockHash": "0x35486bf0364bbb3e71ea3e597e5fd76c1ef59da3551938c766624c3509f20079",
          "blockNumber": "0x2373828",
          "blockTimestamp": "0x6981cf30",
          "transactionHash": "0xadf6c8fc33411de2c86f74e448d654088cd4007257b4f539579ded7e5dad468c",
          "transactionIndex": "0x4",
          "logIndex": "0x5d",
          "removed": false
        }
      ],
      "logsBloom": "0x00000000000000000000000000001000000000000000000000000000000000000000000000000000000000000000000000000000000000000000000200200000000000408000000000000008000000000000000000000000000000000000000000000000028000000000000002000800000000000004000000000010000000000000000000000000000000000000002200000020000000000001000000000000020000000000000000000000000000000020000000000000000000000000000000000002000000000000000000000000000000000008002000000000000020000010000000000000000000000000000000000000002000040002800000000000",
      "type": "0x2",
      "transactionHash": "0xadf6c8fc33411de2c86f74e448d654088cd4007257b4f539579ded7e5dad468c",
      "transactionIndex": "0x4",
      "blockHash": "0x35486bf0364bbb3e71ea3e597e5fd76c1ef59da3551938c766624c3509f20079",
      "blockNumber": "0x2373828",
      "gasUsed": "0x368be",
      "effectiveGasPrice": "0x124f80",
      "blobGasUsed": "0x79e0",
      "from": "0xc15b6392ffa1964012dc8f3df87b09258e86c60d",
      "to": "0xf24a5664fffec3bb36fd211bdcce7e98a7d41f9a",
      "contractAddress": null,
      "daFootprintGasScalar": "0x138",
      "l1BaseFeeScalar": "0x44d",
      "l1BlobBaseFee": "0x455c934",
      "l1BlobBaseFeeScalar": "0xa118b",
      "l1Fee": "0x18f3a8138",
      "l1GasPrice": "0x403f1349",
      "l1GasUsed": "0x640"
    },
    {
      "status": "0x1",
      "cumulativeGasUsed": "0x29288d",
      "logs": [
        {
          "address": "0xba50cd2a20f6da35d788639e581bca8d0b5d4d5f",
          "topics": [
            "0x8c5be1e5ebec7d5bd14f71427d1e84f3dd0314c0f7b2291e5b200ac8c7c3b925",
            "0x000000000000000000000000f24a5664fffec3bb36fd211bdcce7e98a7d41f9a",
            "0x00000000000000000000000093ff4966dc16690bb2cbff40d99a116bf6781a51"
          ],
          "data": "0x00000000000000000000000000000000000000000000000000000000ee6b2800",
          "blockHash": "0x35486bf0364bbb3e71ea3e597e5fd76c1ef59da3551938c766624c3509f20079",
          "blockNumber": "0x2373828",
          "blockTimestamp": "0x6981cf30",
          "transactionHash": "0xce6875b9d14c0f50894ad360cea9c473d597800691380863ed33bb48bcc1e33e",
          "transactionIndex": "0x5",
          "logIndex": "0x5e",
          "removed": false
        },
        {
          "address": "0xba50cd2a20f6da35d788639e581bca8d0b5d4d5f",
          "topics": [
            "0xddf252ad1be2c89b69c2b068fc378daa952ba7f163c4a11628f55a4df523b3ef",
            "0x000000000000000000000000f24a5664fffec3bb36fd211bdcce7e98a7d41f9a",
            "0x00000000000000000000000093ff4966dc16690bb2cbff40d99a116bf6781a51"
          ],
          "data": "0x00000000000000000000000000000000000000000000000000000000ee6b2800",
          "blockHash": "0x35486bf0364bbb3e71ea3e597e5fd76c1ef59da3551938c766624c3509f20079",
          "blockNumber": "0x2373828",
          "blockTimestamp": "0x6981cf30",
          "transactionHash": "0xce6875b9d14c0f50894ad360cea9c473d597800691380863ed33bb48bcc1e33e",
          "transactionIndex": "0x5",
          "logIndex": "0x5f",
          "removed": false
        },
        {
          "address": "0xba50cd2a20f6da35d788639e581bca8d0b5d4d5f",
          "topics": [
            "0x8c5be1e5ebec7d5bd14f71427d1e84f3dd0314c0f7b2291e5b200ac8c7c3b925",
            "0x000000000000000000000000f24a5664fffec3bb36fd211bdcce7e98a7d41f9a",
            "0x00000000000000000000000093ff4966dc16690bb2cbff40d99a116bf6781a51"
          ],
          "data": "0x0000000000000000000000000000000000000000000000000000000000000000",
          "blockHash": "0x35486bf0364bbb3e71ea3e597e5fd76c1ef59da3551938c766624c3509f20079",
          "blockNumber": "0x2373828",
          "blockTimestamp": "0x6981cf30",
          "transactionHash": "0xce6875b9d14c0f50894ad360cea9c473d597800691380863ed33bb48bcc1e33e",
          "transactionIndex": "0x5",
          "logIndex": "0x60",
          "removed": false
        },
        {
          "address": "0xba50cd2a20f6da35d788639e581bca8d0b5d4d5f",
          "topics": [
            "0x8c5be1e5ebec7d5bd14f71427d1e84f3dd0314c0f7b2291e5b200ac8c7c3b925",
            "0x00000000000000000000000093ff4966dc16690bb2cbff40d99a116bf6781a51",
            "0x0000000000000000000000008bab6d1b75f19e9ed9fce8b9bd338844ff79ae27"
          ],
          "data": "0x00000000000000000000000000000000000000000000000000000000ee6b2800",
          "blockHash": "0x35486bf0364bbb3e71ea3e597e5fd76c1ef59da3551938c766624c3509f20079",
          "blockNumber": "0x2373828",
          "blockTimestamp": "0x6981cf30",
          "transactionHash": "0xce6875b9d14c0f50894ad360cea9c473d597800691380863ed33bb48bcc1e33e",
          "transactionIndex": "0x5",
          "logIndex": "0x61",
          "removed": false
        },
        {
          "address": "0x8bab6d1b75f19e9ed9fce8b9bd338844ff79ae27",
          "topics": [
            "0x804c9b842b2748a22bb64b345453a3de7ca54a6ca45ce00d415894979e22897a",
            "0x000000000000000000000000ba50cd2a20f6da35d788639e581bca8d0b5d4d5f"
          ],
          "data": "0x00000000000000000000000000000000000000000004772d6545c5b6296406c600000000000000000000000000000000000000000000000000000000000000000000000000000000000000000000000000000000000ecb8569f4771bd0e87ac50000000000000000000000000000000000000000040070839051292f77f57ccc00000000000000000000000000000000000000000422478bb2896eb2a0a7f993",
          "blockHash": "0x35486bf0364bbb3e71ea3e597e5fd76c1ef59da3551938c766624c3509f20079",
          "blockNumber": "0x2373828",
          "blockTimestamp": "0x6981cf30",
          "transactionHash": "0xce6875b9d14c0f50894ad360cea9c473d597800691380863ed33bb48bcc1e33e",
          "transactionIndex": "0x5",
          "logIndex": "0x62",
          "removed": false
        },
        {
          "address": "0xba50cd2a20f6da35d788639e581bca8d0b5d4d5f",
          "topics": [
            "0xddf252ad1be2c89b69c2b068fc378daa952ba7f163c4a11628f55a4df523b3ef",
            "0x00000000000000000000000093ff4966dc16690bb2cbff40d99a116bf6781a51",
            "0x00000000000000000000000010f1a9d11cdf50041f3f8cb7191cbe2f31750acc"
          ],
          "data": "0x00000000000000000000000000000000000000000000000000000000ee6b2800",
          "blockHash": "0x35486bf0364bbb3e71ea3e597e5fd76c1ef59da3551938c766624c3509f20079",
          "blockNumber": "0x2373828",
          "blockTimestamp": "0x6981cf30",
          "transactionHash": "0xce6875b9d14c0f50894ad360cea9c473d597800691380863ed33bb48bcc1e33e",
          "transactionIndex": "0x5",
          "logIndex": "0x63",
          "removed": false
        },
        {
          "address": "0xba50cd2a20f6da35d788639e581bca8d0b5d4d5f",
          "topics": [
            "0x8c5be1e5ebec7d5bd14f71427d1e84f3dd0314c0f7b2291e5b200ac8c7c3b925",
            "0x00000000000000000000000093ff4966dc16690bb2cbff40d99a116bf6781a51",
            "0x0000000000000000000000008bab6d1b75f19e9ed9fce8b9bd338844ff79ae27"
          ],
          "data": "0x0000000000000000000000000000000000000000000000000000000000000000",
          "blockHash": "0x35486bf0364bbb3e71ea3e597e5fd76c1ef59da3551938c766624c3509f20079",
          "blockNumber": "0x2373828",
          "blockTimestamp": "0x6981cf30",
          "transactionHash": "0xce6875b9d14c0f50894ad360cea9c473d597800691380863ed33bb48bcc1e33e",
          "transactionIndex": "0x5",
          "logIndex": "0x64",
          "removed": false
        },
        {
          "address": "0x10f1a9d11cdf50041f3f8cb7191cbe2f31750acc",
          "topics": [
            "0xddf252ad1be2c89b69c2b068fc378daa952ba7f163c4a11628f55a4df523b3ef",
            "0x0000000000000000000000000000000000000000000000000000000000000000",
            "0x00000000000000000000000093ff4966dc16690bb2cbff40d99a116bf6781a51"
          ],
          "data": "0x00000000000000000000000000000000000000000000000000000000ee6b27ff",
          "blockHash": "0x35486bf0364bbb3e71ea3e597e5fd76c1ef59da3551938c766624c3509f20079",
          "blockNumber": "0x2373828",
          "blockTimestamp": "0x6981cf30",
          "transactionHash": "0xce6875b9d14c0f50894ad360cea9c473d597800691380863ed33bb48bcc1e33e",
          "transactionIndex": "0x5",
          "logIndex": "0x65",
          "removed": false
        },
        {
          "address": "0x10f1a9d11cdf50041f3f8cb7191cbe2f31750acc",
          "topics": [
            "0x458f5fa412d0f69b08dd84872b0215675cc67bc1d5b6fd93300a1c3878b86196",
            "0x00000000000000000000000093ff4966dc16690bb2cbff40d99a116bf6781a51",
            "0x00000000000000000000000093ff4966dc16690bb2cbff40d99a116bf6781a51"
          ],
          "data": "0x00000000000000000000000000000000000000000000000000000000ee6b27ff00000000000000000000000000000000000000000000000000000000000000000000000000000000000000000000000000000000040070839051292f77f57ccc",
          "blockHash": "0x35486bf0364bbb3e71ea3e597e5fd76c1ef59da3551938c766624c3509f20079",
          "blockNumber": "0x2373828",
          "blockTimestamp": "0x6981cf30",
          "transactionHash": "0xce6875b9d14c0f50894ad360cea9c473d597800691380863ed33bb48bcc1e33e",
          "transactionIndex": "0x5",
          "logIndex": "0x66",
          "removed": false
        },
        {
          "address": "0x8bab6d1b75f19e9ed9fce8b9bd338844ff79ae27",
          "topics": [
            "0x00058a56ea94653cdf4f152d227ace22d4c00ad99e2a43f58cb7d9e3feb295f2",
            "0x000000000000000000000000ba50cd2a20f6da35d788639e581bca8d0b5d4d5f",
            "0x00000000000000000000000093ff4966dc16690bb2cbff40d99a116bf6781a51"
          ],
          "data": "0x",
          "blockHash": "0x35486bf0364bbb3e71ea3e597e5fd76c1ef59da3551938c766624c3509f20079",
          "blockNumber": "0x2373828",
          "blockTimestamp": "0x6981cf30",
          "transactionHash": "0xce6875b9d14c0f50894ad360cea9c473d597800691380863ed33bb48bcc1e33e",
          "transactionIndex": "0x5",
          "logIndex": "0x67",
          "removed": false
        },
        {
          "address": "0x8bab6d1b75f19e9ed9fce8b9bd338844ff79ae27",
          "topics": [
            "0x2b627736bca15cd5381dcf80b0bf11fd197d01a037c52b927a881a10fb73ba61",
            "0x000000000000000000000000ba50cd2a20f6da35d788639e581bca8d0b5d4d5f",
            "0x00000000000000000000000093ff4966dc16690bb2cbff40d99a116bf6781a51",
            "0x0000000000000000000000000000000000000000000000000000000000000000"
          ],
          "data": "0x00000000000000000000000093ff4966dc16690bb2cbff40d99a116bf6781a5100000000000000000000000000000000000000000000000000000000ee6b2800",
          "blockHash": "0x35486bf0364bbb3e71ea3e597e5fd76c1ef59da3551938c766624c3509f20079",
          "blockNumber": "0x2373828",
          "blockTimestamp": "0x6981cf30",
          "transactionHash": "0xce6875b9d14c0f50894ad360cea9c473d597800691380863ed33bb48bcc1e33e",
          "transactionIndex": "0x5",
          "logIndex": "0x68",
          "removed": false
        },
        {
          "address": "0xf24a5664fffec3bb36fd211bdcce7e98a7d41f9a",
          "topics": [
            "0x4d55162687154640f2294be21d680fea91a811337cd162c5a3d5c625c48de592",
            "0x0000000000000000000000000000000000000000000000000000000000000000"
          ],
          "data": "0x00000000000000000000000000000000000000000000000000000000ee6b2800",
          "blockHash": "0x35486bf0364bbb3e71ea3e597e5fd76c1ef59da3551938c766624c3509f20079",
          "blockNumber": "0x2373828",
          "blockTimestamp": "0x6981cf30",
          "transactionHash": "0xce6875b9d14c0f50894ad360cea9c473d597800691380863ed33bb48bcc1e33e",
          "transactionIndex": "0x5",
          "logIndex": "0x69",
          "removed": false
        }
      ],
      "logsBloom": "0x00000040000008000080000000001000400000000000800000000000000040000000000000000000000000000004000010000000000000000000000200200000000000008000000000000408020800000000800000000000000000040000000000000000028000000000000000800800000000000000100000000010000000000000000080000000000000000000000000002000000000000000000000200000020000000000000000000000040000000020000004000000000000100000018002000002000000000004002040000000040000000000002000000000000020000010000000000000000000000000200040000000002000000002c00000000000",
      "type": "0x2",
      "transactionHash": "0xce6875b9d14c0f50894ad360cea9c473d597800691380863ed33bb48bcc1e33e",
      "transactionIndex": "0x5",
      "blockHash": "0x35486bf0364bbb3e71ea3e597e5fd76c1ef59da3551938c766624c3509f20079",
      "blockNumber": "0x2373828",
      "gasUsed": "0x4a02c",
      "effectiveGasPrice": "0x124f80",
      "blobGasUsed": "0x79e0",
      "from": "0xc15b6392ffa1964012dc8f3df87b09258e86c60d",
      "to": "0xf24a5664fffec3bb36fd211bdcce7e98a7d41f9a",
      "contractAddress": null,
      "daFootprintGasScalar": "0x138",
      "l1BaseFeeScalar": "0x44d",
      "l1BlobBaseFee": "0x455c934",
      "l1BlobBaseFeeScalar": "0xa118b",
      "l1Fee": "0x18f3a8138",
      "l1GasPrice": "0x403f1349",
      "l1GasUsed": "0x640"
    },
    {
      "status": "0x1",
      "cumulativeGasUsed": "0x2cc678",
      "logs": [
        {
          "address": "0xba50cd2a20f6da35d788639e581bca8d0b5d4d5f",
          "topics": [
            "0x8c5be1e5ebec7d5bd14f71427d1e84f3dd0314c0f7b2291e5b200ac8c7c3b925",
            "0x000000000000000000000000f24a5664fffec3bb36fd211bdcce7e98a7d41f9a",
            "0x000000000000000000000000ccff688e68372f70a27e42070a273a6cf580189e"
          ],
          "data": "0x00000000000000000000000000000000000000000000000000000000b2d05e00",
          "blockHash": "0x85ec8057c9027cae9efa261bacd18069178fa1da891fc354a3d08fa567532eae",
          "blockNumber": "0x2373828",
          "blockTimestamp": "0x6981cf30",
          "transactionHash": "0x626165ae72e5e087b498b2025f1a66058ee87de70bf6ccc5c164fce5fb383af4",
          "transactionIndex": "0x6",
          "logIndex": "0x6a",
          "removed": false
        },
        {
          "address": "0xba50cd2a20f6da35d788639e581bca8d0b5d4d5f",
          "topics": [
            "0xddf252ad1be2c89b69c2b068fc378daa952ba7f163c4a11628f55a4df523b3ef",
            "0x000000000000000000000000f24a5664fffec3bb36fd211bdcce7e98a7d41f9a",
            "0x000000000000000000000000ccff688e68372f70a27e42070a273a6cf580189e"
          ],
          "data": "0x00000000000000000000000000000000000000000000000000000000b2d05e00",
          "blockHash": "0x85ec8057c9027cae9efa261bacd18069178fa1da891fc354a3d08fa567532eae",
          "blockNumber": "0x2373828",
          "blockTimestamp": "0x6981cf30",
          "transactionHash": "0x626165ae72e5e087b498b2025f1a66058ee87de70bf6ccc5c164fce5fb383af4",
          "transactionIndex": "0x6",
          "logIndex": "0x6b",
          "removed": false
        },
        {
          "address": "0xba50cd2a20f6da35d788639e581bca8d0b5d4d5f",
          "topics": [
            "0x8c5be1e5ebec7d5bd14f71427d1e84f3dd0314c0f7b2291e5b200ac8c7c3b925",
            "0x000000000000000000000000f24a5664fffec3bb36fd211bdcce7e98a7d41f9a",
            "0x000000000000000000000000ccff688e68372f70a27e42070a273a6cf580189e"
          ],
          "data": "0x0000000000000000000000000000000000000000000000000000000000000000",
          "blockHash": "0x85ec8057c9027cae9efa261bacd18069178fa1da891fc354a3d08fa567532eae",
          "blockNumber": "0x2373828",
          "blockTimestamp": "0x6981cf30",
          "transactionHash": "0x626165ae72e5e087b498b2025f1a66058ee87de70bf6ccc5c164fce5fb383af4",
          "transactionIndex": "0x6",
          "logIndex": "0x6c",
          "removed": false
        },
        {
          "address": "0xba50cd2a20f6da35d788639e581bca8d0b5d4d5f",
          "topics": [
            "0x8c5be1e5ebec7d5bd14f71427d1e84f3dd0314c0f7b2291e5b200ac8c7c3b925",
            "0x000000000000000000000000ccff688e68372f70a27e42070a273a6cf580189e",
            "0x000000000000000000000000bd2dfcd64d4ff0bc0aa2d6c1a53406688eac3acb"
          ],
          "data": "0x00000000000000000000000000000000000000000000000000000000b2d05e00",
          "blockHash": "0x85ec8057c9027cae9efa261bacd18069178fa1da891fc354a3d08fa567532eae",
          "blockNumber": "0x2373828",
          "blockTimestamp": "0x6981cf30",
          "transactionHash": "0x626165ae72e5e087b498b2025f1a66058ee87de70bf6ccc5c164fce5fb383af4",
          "transactionIndex": "0x6",
          "logIndex": "0x6d",
          "removed": false
        },
        {
          "address": "0xba50cd2a20f6da35d788639e581bca8d0b5d4d5f",
          "topics": [
            "0xddf252ad1be2c89b69c2b068fc378daa952ba7f163c4a11628f55a4df523b3ef",
            "0x000000000000000000000000ccff688e68372f70a27e42070a273a6cf580189e",
            "0x000000000000000000000000bd2dfcd64d4ff0bc0aa2d6c1a53406688eac3acb"
          ],
          "data": "0x00000000000000000000000000000000000000000000000000000000b2d05e00",
          "blockHash": "0x85ec8057c9027cae9efa261bacd18069178fa1da891fc354a3d08fa567532eae",
          "blockNumber": "0x2373828",
          "blockTimestamp": "0x6981cf30",
          "transactionHash": "0x626165ae72e5e087b498b2025f1a66058ee87de70bf6ccc5c164fce5fb383af4",
          "transactionIndex": "0x6",
          "logIndex": "0x6e",
          "removed": false
        },
        {
          "address": "0xba50cd2a20f6da35d788639e581bca8d0b5d4d5f",
          "topics": [
            "0x8c5be1e5ebec7d5bd14f71427d1e84f3dd0314c0f7b2291e5b200ac8c7c3b925",
            "0x000000000000000000000000ccff688e68372f70a27e42070a273a6cf580189e",
            "0x000000000000000000000000bd2dfcd64d4ff0bc0aa2d6c1a53406688eac3acb"
          ],
          "data": "0x0000000000000000000000000000000000000000000000000000000000000000",
          "blockHash": "0x85ec8057c9027cae9efa261bacd18069178fa1da891fc354a3d08fa567532eae",
          "blockNumber": "0x2373828",
          "blockTimestamp": "0x6981cf30",
          "transactionHash": "0x626165ae72e5e087b498b2025f1a66058ee87de70bf6ccc5c164fce5fb383af4",
          "transactionIndex": "0x6",
          "logIndex": "0x6f",
          "removed": false
        },
        {
          "address": "0xbd2dfcd64d4ff0bc0aa2d6c1a53406688eac3acb",
          "topics": [
            "0xddf252ad1be2c89b69c2b068fc378daa952ba7f163c4a11628f55a4df523b3ef",
            "0x0000000000000000000000000000000000000000000000000000000000000000",
            "0x000000000000000000000000ccff688e68372f70a27e42070a273a6cf580189e"
          ],
          "data": "0x00000000000000000000000000000000000000000000000000000000b2d05e00",
          "blockHash": "0x85ec8057c9027cae9efa261bacd18069178fa1da891fc354a3d08fa567532eae",
          "blockNumber": "0x2373828",
          "blockTimestamp": "0x6981cf30",
          "transactionHash": "0x626165ae72e5e087b498b2025f1a66058ee87de70bf6ccc5c164fce5fb383af4",
          "transactionIndex": "0x6",
          "logIndex": "0x70",
          "removed": false
        },
        {
          "address": "0xbd2dfcd64d4ff0bc0aa2d6c1a53406688eac3acb",
          "topics": [
            "0xdcbc1c05240f31ff3ad067ef1ee35ce4997762752e3a095284754544f4c709d7",
            "0x000000000000000000000000ccff688e68372f70a27e42070a273a6cf580189e",
            "0x000000000000000000000000ccff688e68372f70a27e42070a273a6cf580189e"
          ],
          "data": "0x00000000000000000000000000000000000000000000000000000000b2d05e0000000000000000000000000000000000000000000000000000000000b2d05e00",
          "blockHash": "0x85ec8057c9027cae9efa261bacd18069178fa1da891fc354a3d08fa567532eae",
          "blockNumber": "0x2373828",
          "blockTimestamp": "0x6981cf30",
          "transactionHash": "0x626165ae72e5e087b498b2025f1a66058ee87de70bf6ccc5c164fce5fb383af4",
          "transactionIndex": "0x6",
          "logIndex": "0x71",
          "removed": false
        },
        {
          "address": "0xf24a5664fffec3bb36fd211bdcce7e98a7d41f9a",
          "topics": [
            "0x4d55162687154640f2294be21d680fea91a811337cd162c5a3d5c625c48de592",
            "0x0000000000000000000000000000000000000000000000000000000000000001"
          ],
          "data": "0x00000000000000000000000000000000000000000000000000000000b2d05e00",
          "blockHash": "0x85ec8057c9027cae9efa261bacd18069178fa1da891fc354a3d08fa567532eae",
          "blockNumber": "0x2373828",
          "blockTimestamp": "0x6981cf30",
          "transactionHash": "0x626165ae72e5e087b498b2025f1a66058ee87de70bf6ccc5c164fce5fb383af4",
          "transactionIndex": "0x6",
          "logIndex": "0x72",
          "removed": false
        }
      ],
      "logsBloom": "0x00000040000000000000000000001000000000000000000000000000000040000000000000000000000000000008000000000000000000000000000200240000000000408000000000800008000000000000000080040000000000000000000000000000028000000000000000000800000000000004000000000010008000000000000000000000000000000000000000000000000000000000000000000000020000000000000000001000000000000020010000000000000000000000100008000002000000008000000000000000040000000008002000000000000060000010000000000000000000000000000000000000002000000002800000000000",
      "type": "0x2",
      "transactionHash": "0x626165ae72e5e087b498b2025f1a66058ee87de70bf6ccc5c164fce5fb383af4",
      "transactionIndex": "0x6",
      "blockHash": "0x85ec8057c9027cae9efa261bacd18069178fa1da891fc354a3d08fa567532eae",
      "blockNumber": "0x2373828",
      "gasUsed": "0x39deb",
      "effectiveGasPrice": "0x124f80",
      "blobGasUsed": "0x79e0",
      "from": "0xc15b6392ffa1964012dc8f3df87b09258e86c60d",
      "to": "0xf24a5664fffec3bb36fd211bdcce7e98a7d41f9a",
      "contractAddress": null,
      "daFootprintGasScalar": "0x138",
      "l1BaseFeeScalar": "0x44d",
      "l1BlobBaseFee": "0x455c934",
      "l1BlobBaseFeeScalar": "0xa118b",
      "l1Fee": "0x18f3a8138",
      "l1GasPrice": "0x403f1349",
      "l1GasUsed": "0x640"
    },
    {
      "status": "0x1",
      "cumulativeGasUsed": "0x73ded3",
      "logs": [
        {
          "address": "0xf24a5664fffec3bb36fd211bdcce7e98a7d41f9a",
          "topics": [
            "0x2a3be406358fe76e33e9faf9829d67d0fb816bb184a834dbd7312d4894932421",
            "0x00000000000000000000000093ff4966dc16690bb2cbff40d99a116bf6781a51"
          ],
          "data": "0x00000000000000000000000000000000000000000000000000000000000005dc00000000000000000000000000000000000000000000000000000000000007d00000000000000000000000000000000000000000000000000000000000001388000000000000000000000000000000000000000000000000000000006981cf300000000000000000000000000000000000000000000000000000000000000001",
          "blockHash": "0x35486bf0364bbb3e71ea3e597e5fd76c1ef59da3551938c766624c3509f20079",
          "blockNumber": "0x2373828",
          "blockTimestamp": "0x6981cf30",
          "transactionHash": "0x8d436221710e28448bb8f79ed994351bbff5a4ea348e1a9b06ec55194af74243",
          "transactionIndex": "0xd",
          "logIndex": "0xaa",
          "removed": false
        },
        {
          "address": "0xf24a5664fffec3bb36fd211bdcce7e98a7d41f9a",
          "topics": [
            "0x2a3be406358fe76e33e9faf9829d67d0fb816bb184a834dbd7312d4894932421",
            "0x000000000000000000000000ccff688e68372f70a27e42070a273a6cf580189e"
          ],
          "data": "0x00000000000000000000000000000000000000000000000000000000000003e800000000000000000000000000000000000000000000000000000000000005dc0000000000000000000000000000000000000000000000000000000000001388000000000000000000000000000000000000000000000000000000006981cf300000000000000000000000000000000000000000000000000000000000000000",
          "blockHash": "0x35486bf0364bbb3e71ea3e597e5fd76c1ef59da3551938c766624c3509f20079",
          "blockNumber": "0x2373828",
          "blockTimestamp": "0x6981cf30",
          "transactionHash": "0x8d436221710e28448bb8f79ed994351bbff5a4ea348e1a9b06ec55194af74243",
          "transactionIndex": "0xd",
          "logIndex": "0xab",
          "removed": false
        },
        {
          "address": "0xf24a5664fffec3bb36fd211bdcce7e98a7d41f9a",
          "topics": [
            "0x40f55df7a2087965e409aa07d88543c6ea1d5f50fa6d7a9828af2d24d71fd702"
          ],
          "data": "0x00000000000000000000000000000000000000000000000000000000000036b000000000000000000000000000000000000000000000000000000000000009c4000000000000000000000000000000000000000000000000000000006981cef20000000000000000000000000000000000000000000000000000000000000001",
          "blockHash": "0x35486bf0364bbb3e71ea3e597e5fd76c1ef59da3551938c766624c3509f20079",
          "blockNumber": "0x2373828",
          "blockTimestamp": "0x6981cf30",
          "transactionHash": "0x8d436221710e28448bb8f79ed994351bbff5a4ea348e1a9b06ec55194af74243",
          "transactionIndex": "0xd",
          "logIndex": "0xac",
          "removed": false
        }
      ],
      "logsBloom": "0x00000000000000000000000000000000000000000000000000000800000000000000000000000000000000000000000010000000000000000000000000000000000000008000000000000000000000000000800080000000000000400000000000000000008000000000000000000000000000000000000000000000000040000000000000000000000000000000000000000000000000000000000000200000000000000000000000001000000100000000000040000000000000000000000008000000000000000000000000000000000000000000040000000000000000000000000000000000000000000000000000000000000000000002000000000000",
      "type": "0x2",
      "transactionHash": "0x8d436221710e28448bb8f79ed994351bbff5a4ea348e1a9b06ec55194af74243",
      "transactionIndex": "0xd",
      "blockHash": "0x35486bf0364bbb3e71ea3e597e5fd76c1ef59da3551938c766624c3509f20079",
      "blockNumber": "0x2373828",
      "gasUsed": "0x1de38",
      "effectiveGasPrice": "0x124f80",
      "blobGasUsed": "0x109b0",
      "from": "0xc15b6392ffa1964012dc8f3df87b09258e86c60d",
      "to": "0xf24a5664fffec3bb36fd211bdcce7e98a7d41f9a",
      "contractAddress": null,
      "daFootprintGasScalar": "0x138",
      "l1BaseFeeScalar": "0x44d",
      "l1BlobBaseFee": "0x455c934",
      "l1BlobBaseFeeScalar": "0xa118b",
      "l1Fee": "0x367ecb929",
      "l1GasPrice": "0x403f1349",
      "l1GasUsed": "0xda6"
    },
    {
      "status": "0x1",
      "cumulativeGasUsed": "0x76896d",
      "logs": [
        {
          "address": "0x8bab6d1b75f19e9ed9fce8b9bd338844ff79ae27",
          "topics": [
            "0x804c9b842b2748a22bb64b345453a3de7ca54a6ca45ce00d415894979e22897a",
            "0x000000000000000000000000ba50cd2a20f6da35d788639e581bca8d0b5d4d5f"
          ],
          "data": "0x000000000000000000000000000000000000000000047808fd606b41713bf6db00000000000000000000000000000000000000000000000000000000000000000000000000000000000000000000000000000000000eccf11ec35835c06f06690000000000000000000000000000000000000000040070839051292f77f57ccc00000000000000000000000000000000000000000422478bb2896eb2a0a7f993",
          "blockHash": "0x565a4840a23949ffb4b93137ca2942b568bd1c5d818d21bed2626f4f9d52ccfe",
          "blockNumber": "0x2373828",
          "blockTimestamp": "0x6981cf30",
          "transactionHash": "0xdeca64094b1bee5341d950abccb481511aaa8733a2476808fdb97468a24a4aa8",
          "transactionIndex": "0xe",
          "logIndex": "0xad",
          "removed": false
        },
        {
          "address": "0x10f1a9d11cdf50041f3f8cb7191cbe2f31750acc",
          "topics": [
            "0xddf252ad1be2c89b69c2b068fc378daa952ba7f163c4a11628f55a4df523b3ef",
            "0x00000000000000000000000093ff4966dc16690bb2cbff40d99a116bf6781a51",
            "0x0000000000000000000000000000000000000000000000000000000000000000"
          ],
          "data": "0x0000000000000000000000000000000000000000000000000000000077359401",
          "blockHash": "0x565a4840a23949ffb4b93137ca2942b568bd1c5d818d21bed2626f4f9d52ccfe",
          "blockNumber": "0x2373828",
          "blockTimestamp": "0x6981cf30",
          "transactionHash": "0xdeca64094b1bee5341d950abccb481511aaa8733a2476808fdb97468a24a4aa8",
          "transactionIndex": "0xe",
          "logIndex": "0xae",
          "removed": false
        },
        {
          "address": "0x10f1a9d11cdf50041f3f8cb7191cbe2f31750acc",
          "topics": [
            "0x4cf25bc1d991c17529c25213d3cc0cda295eeaad5f13f361969b12ea48015f90",
            "0x00000000000000000000000093ff4966dc16690bb2cbff40d99a116bf6781a51",
            "0x00000000000000000000000093ff4966dc16690bb2cbff40d99a116bf6781a51"
          ],
          "data": "0x000000000000000000000000000000000000000000000000000000007735940100000000000000000000000000000000000000000000000000000000000000000000000000000000000000000000000000000000040070839051292f77f57ccc",
          "blockHash": "0x565a4840a23949ffb4b93137ca2942b568bd1c5d818d21bed2626f4f9d52ccfe",
          "blockNumber": "0x2373828",
          "blockTimestamp": "0x6981cf30",
          "transactionHash": "0xdeca64094b1bee5341d950abccb481511aaa8733a2476808fdb97468a24a4aa8",
          "transactionIndex": "0xe",
          "logIndex": "0xaf",
          "removed": false
        },
        {
          "address": "0xba50cd2a20f6da35d788639e581bca8d0b5d4d5f",
          "topics": [
            "0xddf252ad1be2c89b69c2b068fc378daa952ba7f163c4a11628f55a4df523b3ef",
            "0x00000000000000000000000010f1a9d11cdf50041f3f8cb7191cbe2f31750acc",
            "0x00000000000000000000000093ff4966dc16690bb2cbff40d99a116bf6781a51"
          ],
          "data": "0x0000000000000000000000000000000000000000000000000000000077359400",
          "blockHash": "0x565a4840a23949ffb4b93137ca2942b568bd1c5d818d21bed2626f4f9d52ccfe",
          "blockNumber": "0x2373828",
          "blockTimestamp": "0x6981cf30",
          "transactionHash": "0xdeca64094b1bee5341d950abccb481511aaa8733a2476808fdb97468a24a4aa8",
          "transactionIndex": "0xe",
          "logIndex": "0xb0",
          "removed": false
        },
        {
          "address": "0x8bab6d1b75f19e9ed9fce8b9bd338844ff79ae27",
          "topics": [
            "0x3115d1449a7b732c986cba18244e897a450f61e1bb8d589cd2e69e6c8924f9f7",
            "0x000000000000000000000000ba50cd2a20f6da35d788639e581bca8d0b5d4d5f",
            "0x00000000000000000000000093ff4966dc16690bb2cbff40d99a116bf6781a51",
            "0x00000000000000000000000093ff4966dc16690bb2cbff40d99a116bf6781a51"
          ],
          "data": "0x0000000000000000000000000000000000000000000000000000000077359400",
          "blockHash": "0x565a4840a23949ffb4b93137ca2942b568bd1c5d818d21bed2626f4f9d52ccfe",
          "blockNumber": "0x2373828",
          "blockTimestamp": "0x6981cf30",
          "transactionHash": "0xdeca64094b1bee5341d950abccb481511aaa8733a2476808fdb97468a24a4aa8",
          "transactionIndex": "0xe",
          "logIndex": "0xb1",
          "removed": false
        },
        {
          "address": "0xba50cd2a20f6da35d788639e581bca8d0b5d4d5f",
          "topics": [
            "0xddf252ad1be2c89b69c2b068fc378daa952ba7f163c4a11628f55a4df523b3ef",
            "0x00000000000000000000000093ff4966dc16690bb2cbff40d99a116bf6781a51",
            "0x000000000000000000000000f24a5664fffec3bb36fd211bdcce7e98a7d41f9a"
          ],
          "data": "0x0000000000000000000000000000000000000000000000000000000077359400",
          "blockHash": "0x565a4840a23949ffb4b93137ca2942b568bd1c5d818d21bed2626f4f9d52ccfe",
          "blockNumber": "0x2373828",
          "blockTimestamp": "0x6981cf30",
          "transactionHash": "0xdeca64094b1bee5341d950abccb481511aaa8733a2476808fdb97468a24a4aa8",
          "transactionIndex": "0xe",
          "logIndex": "0xb2",
          "removed": false
        },
        {
          "address": "0xf24a5664fffec3bb36fd211bdcce7e98a7d41f9a",
          "topics": [
            "0x255da3285f09e83ee10ecb11e706ab1c307fbe4d10407581f116bbb9a5bbbcb5",
            "0x00000000000000000000000093ff4966dc16690bb2cbff40d99a116bf6781a51"
          ],
          "data": "0x0000000000000000000000000000000000000000000000000000000077359400",
          "blockHash": "0x565a4840a23949ffb4b93137ca2942b568bd1c5d818d21bed2626f4f9d52ccfe",
          "blockNumber": "0x2373828",
          "blockTimestamp": "0x6981cf30",
          "transactionHash": "0xdeca64094b1bee5341d950abccb481511aaa8733a2476808fdb97468a24a4aa8",
          "transactionIndex": "0xe",
          "logIndex": "0xb3",
          "removed": false
        }
      ],
      "logsBloom": "0x10000000000000000000000000001000408000200000800000000000000000000000000000000000000000000000000010010000000000000000000200000000000000008000000000000408000800000000800000000000000000000000000000000000028000000000000000000800000000000000120000000010000000000000000000000000000000000000000000002000000000000000000000200000000000000080000000000000040000000020000004000000000000100000018000000002000000000004002000000000080000000000002000000000000020040000000000000000000000000000000000000000002020000002800000000000",
      "type": "0x2",
      "transactionHash": "0xdeca64094b1bee5341d950abccb481511aaa8733a2476808fdb97468a24a4aa8",
      "transactionIndex": "0xe",
      "blockHash": "0x565a4840a23949ffb4b93137ca2942b568bd1c5d818d21bed2626f4f9d52ccfe",
      "blockNumber": "0x2373828",
      "gasUsed": "0x2aa9a",
      "effectiveGasPrice": "0x124f80",
      "blobGasUsed": "0x8748",
      "from": "0xc15b6392ffa1964012dc8f3df87b09258e86c60d",
      "to": "0xf24a5664fffec3bb36fd211bdcce7e98a7d41f9a",
      "contractAddress": null,
      "daFootprintGasScalar": "0x138",
      "l1BaseFeeScalar": "0x44d",
      "l1BlobBaseFee": "0x455c934",
      "l1BlobBaseFeeScalar": "0xa118b",
      "l1Fee": "0x18f3a8138",
      "l1GasPrice": "0x403f1349",
      "l1GasUsed": "0x6f5"
    },
    {
      "status": "0x1",
      "cumulativeGasUsed": "0x793d3f",
      "logs": [
        {
          "address": "0xf24a5664fffec3bb36fd211bdcce7e98a7d41f9a",
          "topics": [
            "0xddf252ad1be2c89b69c2b068fc378daa952ba7f163c4a11628f55a4df523b3ef",
            "0x000000000000000000000000c15b6392ffa1964012dc8f3df87b09258e86c60d",
            "0x0000000000000000000000000000000000000000000000000000000000000000"
          ],
          "data": "0x000000000000000000000000000000000000000000000000000001d1a94a2000",
          "blockHash": "0x565a4840a23949ffb4b93137ca2942b568bd1c5d818d21bed2626f4f9d52ccfe",
          "blockNumber": "0x2373828",
          "blockTimestamp": "0x6981cf30",
          "transactionHash": "0xea6553d84b164a8b020560f9bf8cf5cb053b012c610db426cc23cebc210766ba",
          "transactionIndex": "0xf",
          "logIndex": "0xb4",
          "removed": false
        },
        {
          "address": "0xf24a5664fffec3bb36fd211bdcce7e98a7d41f9a",
          "topics": [
            "0xd72eb5d043f24a0168ae744d5c44f9596fd673a26bf74d9646bff4b844882d14",
            "0x000000000000000000000000c15b6392ffa1964012dc8f3df87b09258e86c60d",
            "0x0000000000000000000000000000000000000000000000000000000000000000"
          ],
          "data": "0x000000000000000000000000000000000000000000000000000001d1a94a2000",
          "blockHash": "0x565a4840a23949ffb4b93137ca2942b568bd1c5d818d21bed2626f4f9d52ccfe",
          "blockNumber": "0x2373828",
          "blockTimestamp": "0x6981cf30",
          "transactionHash": "0xea6553d84b164a8b020560f9bf8cf5cb053b012c610db426cc23cebc210766ba",
          "transactionIndex": "0xf",
          "logIndex": "0xb5",
          "removed": false
        }
      ],
      "logsBloom": "0x00000000000000000000000000000000000000000000000000000000000000000000000000000000000000000000000000000000000000000000000000000000000000008000000000000008000000000000000000000000000000000000000000000000028000000000000000000800000000000000000000000010000000000000000000000000000000000000000200000020000000000001000000000000000000000000000000000000000000000000000000010000000000000000000000000002000800000000000000000000000000000000000000000000000020000000000000000000000000000400000000000000000000000002000000000000",
      "type": "0x2",
      "transactionHash": "0xea6553d84b164a8b020560f9bf8cf5cb053b012c610db426cc23cebc210766ba",
      "transactionIndex": "0xf",
      "blockHash": "0x565a4840a23949ffb4b93137ca2942b568bd1c5d818d21bed2626f4f9d52ccfe",
      "blockNumber": "0x2373828",
      "gasUsed": "0x2b3d2",
      "effectiveGasPrice": "0x124f80",
      "blobGasUsed": "0x79e0",
      "from": "0xc15b6392ffa1964012dc8f3df87b09258e86c60d",
      "to": "0xf24a5664fffec3bb36fd211bdcce7e98a7d41f9a",
      "contractAddress": null,
      "daFootprintGasScalar": "0x138",
      "l1BaseFeeScalar": "0x44d",
      "l1BlobBaseFee": "0x455c934",
      "l1BlobBaseFeeScalar": "0xa118b",
      "l1Fee": "0x18f3a8138",
      "l1GasPrice": "0x403f1349",
      "l1GasUsed": "0x640"
    }
  ],
  "libraries": [],
  "pending": [],
  "returns": {},
  "timestamp": 1770114865808,
  "chain": 84532,
  "commit": "7721e4e"
}